{
	"data": {
		"bytecode": {
			"linkReferences": {},
			"object": "608060405234801562000010575f80fd5b50336040518060400160405280600881526020017f4d595f544f4b454e0000000000000000000000000000000000000000000000008152506040518060400160405280600381526020017f545f4b000000000000000000000000000000000000000000000000000000000081525081600390816200008f9190620005c4565b508060049081620000a19190620005c4565b505050620000c4620000b86200012760201b60201c565b6200012e60201b60201c565b8060065f6101000a81548173ffffffffffffffffffffffffffffffffffffffff021916908373ffffffffffffffffffffffffffffffffffffffff16021790555050620001213369021e19e0c9bab2400000620001f160201b60201c565b620007b9565b5f33905090565b5f60055f9054906101000a900473ffffffffffffffffffffffffffffffffffffffff1690508160055f6101000a81548173ffffffffffffffffffffffffffffffffffffffff021916908373ffffffffffffffffffffffffffffffffffffffff1602179055508173ffffffffffffffffffffffffffffffffffffffff168173ffffffffffffffffffffffffffffffffffffffff167f8be0079c531659141344cd1fd0a4f28419497f9722a3daafe3b4186f6b6457e060405160405180910390a35050565b5f73ffffffffffffffffffffffffffffffffffffffff168273ffffffffffffffffffffffffffffffffffffffff160362000262576040517f08c379a0000000000000000000000000000000000000000000000000000000008152600401620002599062000706565b60405180910390fd5b620002755f83836200035660201b60201c565b8060025f82825462000288919062000753565b92505081905550805f808473ffffffffffffffffffffffffffffffffffffffff1673ffffffffffffffffffffffffffffffffffffffff1681526020019081526020015f205f82825401925050819055508173ffffffffffffffffffffffffffffffffffffffff165f73ffffffffffffffffffffffffffffffffffffffff167fddf252ad1be2c89b69c2b068fc378daa952ba7f163c4a11628f55a4df523b3ef836040516200033791906200079e565b60405180910390a3620003525f83836200035b60201b60201c565b5050565b505050565b505050565b5f81519050919050565b7f4e487b71000000000000000000000000000000000000000000000000000000005f52604160045260245ffd5b7f4e487b71000000000000000000000000000000000000000000000000000000005f52602260045260245ffd5b5f6002820490506001821680620003dc57607f821691505b602082108103620003f257620003f162000397565b5b50919050565b5f819050815f5260205f209050919050565b5f6020601f8301049050919050565b5f82821b905092915050565b5f60088302620004567fffffffffffffffffffffffffffffffffffffffffffffffffffffffffffffffff8262000419565b62000462868362000419565b95508019841693508086168417925050509392505050565b5f819050919050565b5f819050919050565b5f620004ac620004a6620004a0846200047a565b62000483565b6200047a565b9050919050565b5f819050919050565b620004c7836200048c565b620004df620004d682620004b3565b84845462000425565b825550505050565b5f90565b620004f5620004e7565b62000502818484620004bc565b505050565b5b8181101562000529576200051d5f82620004eb565b60018101905062000508565b5050565b601f82111562000578576200054281620003f8565b6200054d846200040a565b810160208510156200055d578190505b620005756200056c856200040a565b83018262000507565b50505b505050565b5f82821c905092915050565b5f6200059a5f19846008026200057d565b1980831691505092915050565b5f620005b4838362000589565b9150826002028217905092915050565b620005cf8262000360565b67ffffffffffffffff811115620005eb57620005ea6200036a565b5b620005f78254620003c4565b620006048282856200052d565b5f60209050601f8311600181146200063a575f841562000625578287015190505b620006318582620005a7565b865550620006a0565b601f1984166200064a86620003f8565b5f5b8281101562000673578489015182556001820191506020850194506020810190506200064c565b868310156200069357848901516200068f601f89168262000589565b8355505b6001600288020188555050505b505050505050565b5f82825260208201905092915050565b7f45524332303a206d696e7420746f20746865207a65726f2061646472657373005f82015250565b5f620006ee601f83620006a8565b9150620006fb82620006b8565b602082019050919050565b5f6020820190508181035f8301526200071f81620006e0565b9050919050565b7f4e487b71000000000000000000000000000000000000000000000000000000005f52601160045260245ffd5b5f6200075f826200047a565b91506200076c836200047a565b925082820190508082111562000787576200078662000726565b5b92915050565b62000798816200047a565b82525050565b5f602082019050620007b35f8301846200078d565b92915050565b61223680620007c75f395ff3fe60806040526004361061014a575f3560e01c80638da5cb5b116100b5578063c753e1261161006e578063c753e12614610486578063dd62ed3e146104ae578063e096b265146104ea578063e4997dc514610512578063f2fde38b1461053a578063f851a440146105625761014a565b80638da5cb5b1461035657806395d89b4114610380578063a457c2d7146103aa578063a9059cbb146103e6578063b36d691914610422578063b5f07ea11461045e5761014a565b8063313ce56711610107578063313ce5671461025e5780633950935114610288578063534844a2146102c457806370a08231146102da578063715018a6146103165780637ff9b5961461032c5761014a565b806306fdde031461014e578063095ea7b3146101785780630ecb93c0146101b457806318160ddd146101dc57806323b872dd146102065780632d296bf114610242575b5f80fd5b348015610159575f80fd5b5061016261058c565b60405161016f919061170a565b60405180910390f35b348015610183575f80fd5b5061019e600480360381019061019991906117bb565b61061c565b6040516101ab9190611813565b60405180910390f35b3480156101bf575f80fd5b506101da60048036038101906101d5919061182c565b61063e565b005b3480156101e7575f80fd5b506101f0610725565b6040516101fd9190611866565b60405180910390f35b348015610211575f80fd5b5061022c6004803603810190610227919061187f565b61072e565b6040516102399190611813565b60405180910390f35b61025c600480360381019061025791906118cf565b6107b6565b005b348015610269575f80fd5b50610272610882565b60405161027f9190611915565b60405180910390f35b348015610293575f80fd5b506102ae60048036038101906102a991906117bb565b61088a565b6040516102bb9190611813565b60405180910390f35b3480156102cf575f80fd5b506102d86108c0565b005b3480156102e5575f80fd5b5061030060048036038101906102fb919061182c565b61092f565b60405161030d9190611866565b60405180910390f35b348015610321575f80fd5b5061032a610974565b005b348015610337575f80fd5b50610340610987565b60405161034d9190611866565b60405180910390f35b348015610361575f80fd5b5061036a61098d565b604051610377919061193d565b60405180910390f35b34801561038b575f80fd5b506103946109b5565b6040516103a1919061170a565b60405180910390f35b3480156103b5575f80fd5b506103d060048036038101906103cb91906117bb565b610a45565b6040516103dd9190611813565b60405180910390f35b3480156103f1575f80fd5b5061040c600480360381019061040791906117bb565b610aba565b6040516104199190611813565b60405180910390f35b34801561042d575f80fd5b506104486004803603810190610443919061182c565b610b37565b6040516104559190611813565b60405180910390f35b348015610469575f80fd5b50610484600480360381019061047f91906118cf565b610b89565b005b348015610491575f80fd5b506104ac60048036038101906104a791906117bb565b610ba5565b005b3480156104b9575f80fd5b506104d460048036038101906104cf9190611956565b610bbb565b6040516104e19190611866565b60405180910390f35b3480156104f5575f80fd5b50610510600480360381019061050b91906118cf565b610c3d565b005b34801561051d575f80fd5b506105386004803603810190610533919061182c565b610c65565b005b348015610545575f80fd5b50610560600480360381019061055b919061182c565b610cbc565b005b34801561056d575f80fd5b50610576610d3e565b604051610583919061193d565b60405180910390f35b60606003805461059b906119c1565b80601f01602080910402602001604051908101604052809291908181526020018280546105c7906119c1565b80156106125780601f106105e957610100808354040283529160200191610612565b820191905f5260205f20905b8154815290600101906020018083116105f557829003601f168201915b5050505050905090565b5f80610626610d63565b9050610633818585610d6a565b600191505092915050565b60065f9054906101000a900473ffffffffffffffffffffffffffffffffffffffff1673ffffffffffffffffffffffffffffffffffffffff163373ffffffffffffffffffffffffffffffffffffffff16146106cd576040517f08c379a00000000000000000000000000000000000000000000000000000000081526004016106c490611a3b565b60405180910390fd5b600160075f8373ffffffffffffffffffffffffffffffffffffffff1673ffffffffffffffffffffffffffffffffffffffff1681526020019081526020015f205f6101000a81548160ff02191690831515021790555050565b5f600254905090565b5f61073884610b37565b801561074a575061074883610b37565b155b610789576040517f08c379a000000000000000000000000000000000000000000000000000000000815260040161078090611aa3565b60405180910390fd5b5f610792610d63565b905061079f858285610f2d565b6107aa858585610fb8565b60019150509392505050565b6107bf33610b37565b156107ff576040517f08c379a00000000000000000000000000000000000000000000000000000000081526004016107f690611aa3565b60405180910390fd5b5f6008548261080e9190611aee565b9050803414610852576040517f08c379a000000000000000000000000000000000000000000000000000000000815260040161084990611b79565b60405180910390fd5b61087e60065f9054906101000a900473ffffffffffffffffffffffffffffffffffffffff163384610fb8565b5050565b5f6012905090565b5f80610894610d63565b90506108b58185856108a68589610bbb565b6108b09190611b97565b610d6a565b600191505092915050565b6108c8611224565b60065f9054906101000a900473ffffffffffffffffffffffffffffffffffffffff1673ffffffffffffffffffffffffffffffffffffffff166108fc4790811502906040515f60405180830381858888f1935050505015801561092c573d5f803e3d5ffd5b50565b5f805f8373ffffffffffffffffffffffffffffffffffffffff1673ffffffffffffffffffffffffffffffffffffffff1681526020019081526020015f20549050919050565b61097c611224565b6109855f6112a2565b565b60085481565b5f60055f9054906101000a900473ffffffffffffffffffffffffffffffffffffffff16905090565b6060600480546109c4906119c1565b80601f01602080910402602001604051908101604052809291908181526020018280546109f0906119c1565b8015610a3b5780601f10610a1257610100808354040283529160200191610a3b565b820191905f5260205f20905b815481529060010190602001808311610a1e57829003601f168201915b5050505050905090565b5f80610a4f610d63565b90505f610a5c8286610bbb565b905083811015610aa1576040517f08c379a0000000000000000000000000000000000000000000000000000000008152600401610a9890611c3a565b60405180910390fd5b610aae8286868403610d6a565b60019250505092915050565b5f610ac433610b37565b158015610ad75750610ad583610b37565b155b610b16576040517f08c379a0000000000000000000000000000000000000000000000000000000008152600401610b0d90611aa3565b60405180910390fd5b5f610b1f610d63565b9050610b2c818585610fb8565b600191505092915050565b5f60075f8373ffffffffffffffffffffffffffffffffffffffff1673ffffffffffffffffffffffffffffffffffffffff1681526020019081526020015f205f9054906101000a900460ff169050919050565b610b91611224565b610ba2610b9c61098d565b82611365565b50565b610bad611224565b610bb78282611365565b5050565b5f60015f8473ffffffffffffffffffffffffffffffffffffffff1673ffffffffffffffffffffffffffffffffffffffff1681526020019081526020015f205f8373ffffffffffffffffffffffffffffffffffffffff1673ffffffffffffffffffffffffffffffffffffffff1681526020019081526020015f2054905092915050565b610c45611224565b610c6233670de0b6b3a764000083610c5d9190611aee565b611528565b50565b5f60075f8373ffffffffffffffffffffffffffffffffffffffff1673ffffffffffffffffffffffffffffffffffffffff1681526020019081526020015f205f6101000a81548160ff02191690831515021790555050565b610cc4611224565b5f73ffffffffffffffffffffffffffffffffffffffff168173ffffffffffffffffffffffffffffffffffffffff1603610d32576040517f08c379a0000000000000000000000000000000000000000000000000000000008152600401610d2990611cc8565b60405180910390fd5b610d3b816112a2565b50565b60065f9054906101000a900473ffffffffffffffffffffffffffffffffffffffff1681565b5f33905090565b5f73ffffffffffffffffffffffffffffffffffffffff168373ffffffffffffffffffffffffffffffffffffffff1603610dd8576040517f08c379a0000000000000000000000000000000000000000000000000000000008152600401610dcf90611d56565b60405180910390fd5b5f73ffffffffffffffffffffffffffffffffffffffff168273ffffffffffffffffffffffffffffffffffffffff1603610e46576040517f08c379a0000000000000000000000000000000000000000000000000000000008152600401610e3d90611de4565b60405180910390fd5b8060015f8573ffffffffffffffffffffffffffffffffffffffff1673ffffffffffffffffffffffffffffffffffffffff1681526020019081526020015f205f8473ffffffffffffffffffffffffffffffffffffffff1673ffffffffffffffffffffffffffffffffffffffff1681526020019081526020015f20819055508173ffffffffffffffffffffffffffffffffffffffff168373ffffffffffffffffffffffffffffffffffffffff167f8c5be1e5ebec7d5bd14f71427d1e84f3dd0314c0f7b2291e5b200ac8c7c3b92583604051610f209190611866565b60405180910390a3505050565b5f610f388484610bbb565b90507fffffffffffffffffffffffffffffffffffffffffffffffffffffffffffffffff8114610fb25781811015610fa4576040517f08c379a0000000000000000000000000000000000000000000000000000000008152600401610f9b90611e4c565b60405180910390fd5b610fb18484848403610d6a565b5b50505050565b5f73ffffffffffffffffffffffffffffffffffffffff168373ffffffffffffffffffffffffffffffffffffffff1603611026576040517f08c379a000000000000000000000000000000000000000000000000000000000815260040161101d90611eda565b60405180910390fd5b5f73ffffffffffffffffffffffffffffffffffffffff168273ffffffffffffffffffffffffffffffffffffffff1603611094576040517f08c379a000000000000000000000000000000000000000000000000000000000815260040161108b90611f68565b60405180910390fd5b61109f838383611676565b5f805f8573ffffffffffffffffffffffffffffffffffffffff1673ffffffffffffffffffffffffffffffffffffffff1681526020019081526020015f2054905081811015611122576040517f08c379a000000000000000000000000000000000000000000000000000000000815260040161111990611ff6565b60405180910390fd5b8181035f808673ffffffffffffffffffffffffffffffffffffffff1673ffffffffffffffffffffffffffffffffffffffff1681526020019081526020015f2081905550815f808573ffffffffffffffffffffffffffffffffffffffff1673ffffffffffffffffffffffffffffffffffffffff1681526020019081526020015f205f82825401925050819055508273ffffffffffffffffffffffffffffffffffffffff168473ffffffffffffffffffffffffffffffffffffffff167fddf252ad1be2c89b69c2b068fc378daa952ba7f163c4a11628f55a4df523b3ef8460405161120b9190611866565b60405180910390a361121e84848461167b565b50505050565b61122c610d63565b73ffffffffffffffffffffffffffffffffffffffff1661124a61098d565b73ffffffffffffffffffffffffffffffffffffffff16146112a0576040517f08c379a00000000000000000000000000000000000000000000000000000000081526004016112979061205e565b60405180910390fd5b565b5f60055f9054906101000a900473ffffffffffffffffffffffffffffffffffffffff1690508160055f6101000a81548173ffffffffffffffffffffffffffffffffffffffff021916908373ffffffffffffffffffffffffffffffffffffffff1602179055508173ffffffffffffffffffffffffffffffffffffffff168173ffffffffffffffffffffffffffffffffffffffff167f8be0079c531659141344cd1fd0a4f28419497f9722a3daafe3b4186f6b6457e060405160405180910390a35050565b5f73ffffffffffffffffffffffffffffffffffffffff168273ffffffffffffffffffffffffffffffffffffffff16036113d3576040517f08c379a00000000000000000000000000000000000000000000000000000000081526004016113ca906120ec565b60405180910390fd5b6113de825f83611676565b5f805f8473ffffffffffffffffffffffffffffffffffffffff1673ffffffffffffffffffffffffffffffffffffffff1681526020019081526020015f2054905081811015611461576040517f08c379a00000000000000000000000000000000000000000000000000000000081526004016114589061217a565b60405180910390fd5b8181035f808573ffffffffffffffffffffffffffffffffffffffff1673ffffffffffffffffffffffffffffffffffffffff1681526020019081526020015f20819055508160025f82825403925050819055505f73ffffffffffffffffffffffffffffffffffffffff168373ffffffffffffffffffffffffffffffffffffffff167fddf252ad1be2c89b69c2b068fc378daa952ba7f163c4a11628f55a4df523b3ef846040516115109190611866565b60405180910390a3611523835f8461167b565b505050565b5f73ffffffffffffffffffffffffffffffffffffffff168273ffffffffffffffffffffffffffffffffffffffff1603611596576040517f08c379a000000000000000000000000000000000000000000000000000000000815260040161158d906121e2565b60405180910390fd5b6115a15f8383611676565b8060025f8282546115b29190611b97565b92505081905550805f808473ffffffffffffffffffffffffffffffffffffffff1673ffffffffffffffffffffffffffffffffffffffff1681526020019081526020015f205f82825401925050819055508173ffffffffffffffffffffffffffffffffffffffff165f73ffffffffffffffffffffffffffffffffffffffff167fddf252ad1be2c89b69c2b068fc378daa952ba7f163c4a11628f55a4df523b3ef8360405161165f9190611866565b60405180910390a36116725f838361167b565b5050565b505050565b505050565b5f81519050919050565b5f82825260208201905092915050565b5f5b838110156116b757808201518184015260208101905061169c565b5f8484015250505050565b5f601f19601f8301169050919050565b5f6116dc82611680565b6116e6818561168a565b93506116f681856020860161169a565b6116ff816116c2565b840191505092915050565b5f6020820190508181035f83015261172281846116d2565b905092915050565b5f80fd5b5f73ffffffffffffffffffffffffffffffffffffffff82169050919050565b5f6117578261172e565b9050919050565b6117678161174d565b8114611771575f80fd5b50565b5f813590506117828161175e565b92915050565b5f819050919050565b61179a81611788565b81146117a4575f80fd5b50565b5f813590506117b581611791565b92915050565b5f80604083850312156117d1576117d061172a565b5b5f6117de85828601611774565b92505060206117ef858286016117a7565b9150509250929050565b5f8115159050919050565b61180d816117f9565b82525050565b5f6020820190506118265f830184611804565b92915050565b5f602082840312156118415761184061172a565b5b5f61184e84828501611774565b91505092915050565b61186081611788565b82525050565b5f6020820190506118795f830184611857565b92915050565b5f805f606084860312156118965761189561172a565b5b5f6118a386828701611774565b93505060206118b486828701611774565b92505060406118c5868287016117a7565b9150509250925092565b5f602082840312156118e4576118e361172a565b5b5f6118f1848285016117a7565b91505092915050565b5f60ff82169050919050565b61190f816118fa565b82525050565b5f6020820190506119285f830184611906565b92915050565b6119378161174d565b82525050565b5f6020820190506119505f83018461192e565b92915050565b5f806040838503121561196c5761196b61172a565b5b5f61197985828601611774565b925050602061198a85828601611774565b9150509250929050565b7f4e487b71000000000000000000000000000000000000000000000000000000005f52602260045260245ffd5b5f60028204905060018216806119d857607f821691505b6020821081036119eb576119ea611994565b5b50919050565b7f596f752063616e20646f207468697300000000000000000000000000000000005f82015250565b5f611a25600f8361168a565b9150611a30826119f1565b602082019050919050565b5f6020820190508181035f830152611a5281611a19565b9050919050565b7f596f752061726520626c61636b6c6973746564000000000000000000000000005f82015250565b5f611a8d60138361168a565b9150611a9882611a59565b602082019050919050565b5f6020820190508181035f830152611aba81611a81565b9050919050565b7f4e487b71000000000000000000000000000000000000000000000000000000005f52601160045260245ffd5b5f611af882611788565b9150611b0383611788565b9250828202611b1181611788565b91508282048414831517611b2857611b27611ac1565b5b5092915050565b7f416d6f756e74206973206c6573730000000000000000000000000000000000005f82015250565b5f611b63600e8361168a565b9150611b6e82611b2f565b602082019050919050565b5f6020820190508181035f830152611b9081611b57565b9050919050565b5f611ba182611788565b9150611bac83611788565b9250828201905080821115611bc457611bc3611ac1565b5b92915050565b7f45524332303a2064656372656173656420616c6c6f77616e63652062656c6f775f8201527f207a65726f000000000000000000000000000000000000000000000000000000602082015250565b5f611c2460258361168a565b9150611c2f82611bca565b604082019050919050565b5f6020820190508181035f830152611c5181611c18565b9050919050565b7f4f776e61626c653a206e6577206f776e657220697320746865207a65726f20615f8201527f6464726573730000000000000000000000000000000000000000000000000000602082015250565b5f611cb260268361168a565b9150611cbd82611c58565b604082019050919050565b5f6020820190508181035f830152611cdf81611ca6565b9050919050565b7f45524332303a20617070726f76652066726f6d20746865207a65726f206164645f8201527f7265737300000000000000000000000000000000000000000000000000000000602082015250565b5f611d4060248361168a565b9150611d4b82611ce6565b604082019050919050565b5f6020820190508181035f830152611d6d81611d34565b9050919050565b7f45524332303a20617070726f766520746f20746865207a65726f2061646472655f8201527f7373000000000000000000000000000000000000000000000000000000000000602082015250565b5f611dce60228361168a565b9150611dd982611d74565b604082019050919050565b5f6020820190508181035f830152611dfb81611dc2565b9050919050565b7f45524332303a20696e73756666696369656e7420616c6c6f77616e63650000005f82015250565b5f611e36601d8361168a565b9150611e4182611e02565b602082019050919050565b5f6020820190508181035f830152611e6381611e2a565b9050919050565b7f45524332303a207472616e736665722066726f6d20746865207a65726f2061645f8201527f6472657373000000000000000000000000000000000000000000000000000000602082015250565b5f611ec460258361168a565b9150611ecf82611e6a565b604082019050919050565b5f6020820190508181035f830152611ef181611eb8565b9050919050565b7f45524332303a207472616e7366657220746f20746865207a65726f20616464725f8201527f6573730000000000000000000000000000000000000000000000000000000000602082015250565b5f611f5260238361168a565b9150611f5d82611ef8565b604082019050919050565b5f6020820190508181035f830152611f7f81611f46565b9050919050565b7f45524332303a207472616e7366657220616d6f756e74206578636565647320625f8201527f616c616e63650000000000000000000000000000000000000000000000000000602082015250565b5f611fe060268361168a565b9150611feb82611f86565b604082019050919050565b5f6020820190508181035f83015261200d81611fd4565b9050919050565b7f4f776e61626c653a2063616c6c6572206973206e6f7420746865206f776e65725f82015250565b5f61204860208361168a565b915061205382612014565b602082019050919050565b5f6020820190508181035f8301526120758161203c565b9050919050565b7f45524332303a206275726e2066726f6d20746865207a65726f206164647265735f8201527f7300000000000000000000000000000000000000000000000000000000000000602082015250565b5f6120d660218361168a565b91506120e18261207c565b604082019050919050565b5f6020820190508181035f830152612103816120ca565b9050919050565b7f45524332303a206275726e20616d6f756e7420657863656564732062616c616e5f8201527f6365000000000000000000000000000000000000000000000000000000000000602082015250565b5f61216460228361168a565b915061216f8261210a565b604082019050919050565b5f6020820190508181035f83015261219181612158565b9050919050565b7f45524332303a206d696e7420746f20746865207a65726f2061646472657373005f82015250565b5f6121cc601f8361168a565b91506121d782612198565b602082019050919050565b5f6020820190508181035f8301526121f9816121c0565b905091905056fea2646970667358221220cdb9e6d6dc319ec05663bbf79f200d9b17c2941154fcff5b1d5eac05a942528e64736f6c63430008150033",
			"opcodes": "PUSH1 0x80 PUSH1 0x40 MSTORE CALLVALUE DUP1 ISZERO PUSH3 0x10 JUMPI PUSH0 DUP1 REVERT JUMPDEST POP CALLER PUSH1 0x40 MLOAD DUP1 PUSH1 0x40 ADD PUSH1 0x40 MSTORE DUP1 PUSH1 0x8 DUP2 MSTORE PUSH1 0x20 ADD PUSH32 0x4D595F544F4B454E000000000000000000000000000000000000000000000000 DUP2 MSTORE POP PUSH1 0x40 MLOAD DUP1 PUSH1 0x40 ADD PUSH1 0x40 MSTORE DUP1 PUSH1 0x3 DUP2 MSTORE PUSH1 0x20 ADD PUSH32 0x545F4B0000000000000000000000000000000000000000000000000000000000 DUP2 MSTORE POP DUP2 PUSH1 0x3 SWAP1 DUP2 PUSH3 0x8F SWAP2 SWAP1 PUSH3 0x5C4 JUMP JUMPDEST POP DUP1 PUSH1 0x4 SWAP1 DUP2 PUSH3 0xA1 SWAP2 SWAP1 PUSH3 0x5C4 JUMP JUMPDEST POP POP POP PUSH3 0xC4 PUSH3 0xB8 PUSH3 0x127 PUSH1 0x20 SHL PUSH1 0x20 SHR JUMP JUMPDEST PUSH3 0x12E PUSH1 0x20 SHL PUSH1 0x20 SHR JUMP JUMPDEST DUP1 PUSH1 0x6 PUSH0 PUSH2 0x100 EXP DUP2 SLOAD DUP2 PUSH20 0xFFFFFFFFFFFFFFFFFFFFFFFFFFFFFFFFFFFFFFFF MUL NOT AND SWAP1 DUP4 PUSH20 0xFFFFFFFFFFFFFFFFFFFFFFFFFFFFFFFFFFFFFFFF AND MUL OR SWAP1 SSTORE POP POP PUSH3 0x121 CALLER PUSH10 0x21E19E0C9BAB2400000 PUSH3 0x1F1 PUSH1 0x20 SHL PUSH1 0x20 SHR JUMP JUMPDEST PUSH3 0x7B9 JUMP JUMPDEST PUSH0 CALLER SWAP1 POP SWAP1 JUMP JUMPDEST PUSH0 PUSH1 0x5 PUSH0 SWAP1 SLOAD SWAP1 PUSH2 0x100 EXP SWAP1 DIV PUSH20 0xFFFFFFFFFFFFFFFFFFFFFFFFFFFFFFFFFFFFFFFF AND SWAP1 POP DUP2 PUSH1 0x5 PUSH0 PUSH2 0x100 EXP DUP2 SLOAD DUP2 PUSH20 0xFFFFFFFFFFFFFFFFFFFFFFFFFFFFFFFFFFFFFFFF MUL NOT AND SWAP1 DUP4 PUSH20 0xFFFFFFFFFFFFFFFFFFFFFFFFFFFFFFFFFFFFFFFF AND MUL OR SWAP1 SSTORE POP DUP2 PUSH20 0xFFFFFFFFFFFFFFFFFFFFFFFFFFFFFFFFFFFFFFFF AND DUP2 PUSH20 0xFFFFFFFFFFFFFFFFFFFFFFFFFFFFFFFFFFFFFFFF AND PUSH32 0x8BE0079C531659141344CD1FD0A4F28419497F9722A3DAAFE3B4186F6B6457E0 PUSH1 0x40 MLOAD PUSH1 0x40 MLOAD DUP1 SWAP2 SUB SWAP1 LOG3 POP POP JUMP JUMPDEST PUSH0 PUSH20 0xFFFFFFFFFFFFFFFFFFFFFFFFFFFFFFFFFFFFFFFF AND DUP3 PUSH20 0xFFFFFFFFFFFFFFFFFFFFFFFFFFFFFFFFFFFFFFFF AND SUB PUSH3 0x262 JUMPI PUSH1 0x40 MLOAD PUSH32 0x8C379A000000000000000000000000000000000000000000000000000000000 DUP2 MSTORE PUSH1 0x4 ADD PUSH3 0x259 SWAP1 PUSH3 0x706 JUMP JUMPDEST PUSH1 0x40 MLOAD DUP1 SWAP2 SUB SWAP1 REVERT JUMPDEST PUSH3 0x275 PUSH0 DUP4 DUP4 PUSH3 0x356 PUSH1 0x20 SHL PUSH1 0x20 SHR JUMP JUMPDEST DUP1 PUSH1 0x2 PUSH0 DUP3 DUP3 SLOAD PUSH3 0x288 SWAP2 SWAP1 PUSH3 0x753 JUMP JUMPDEST SWAP3 POP POP DUP2 SWAP1 SSTORE POP DUP1 PUSH0 DUP1 DUP5 PUSH20 0xFFFFFFFFFFFFFFFFFFFFFFFFFFFFFFFFFFFFFFFF AND PUSH20 0xFFFFFFFFFFFFFFFFFFFFFFFFFFFFFFFFFFFFFFFF AND DUP2 MSTORE PUSH1 0x20 ADD SWAP1 DUP2 MSTORE PUSH1 0x20 ADD PUSH0 KECCAK256 PUSH0 DUP3 DUP3 SLOAD ADD SWAP3 POP POP DUP2 SWAP1 SSTORE POP DUP2 PUSH20 0xFFFFFFFFFFFFFFFFFFFFFFFFFFFFFFFFFFFFFFFF AND PUSH0 PUSH20 0xFFFFFFFFFFFFFFFFFFFFFFFFFFFFFFFFFFFFFFFF AND PUSH32 0xDDF252AD1BE2C89B69C2B068FC378DAA952BA7F163C4A11628F55A4DF523B3EF DUP4 PUSH1 0x40 MLOAD PUSH3 0x337 SWAP2 SWAP1 PUSH3 0x79E JUMP JUMPDEST PUSH1 0x40 MLOAD DUP1 SWAP2 SUB SWAP1 LOG3 PUSH3 0x352 PUSH0 DUP4 DUP4 PUSH3 0x35B PUSH1 0x20 SHL PUSH1 0x20 SHR JUMP JUMPDEST POP POP JUMP JUMPDEST POP POP POP JUMP JUMPDEST POP POP POP JUMP JUMPDEST PUSH0 DUP2 MLOAD SWAP1 POP SWAP2 SWAP1 POP JUMP JUMPDEST PUSH32 0x4E487B7100000000000000000000000000000000000000000000000000000000 PUSH0 MSTORE PUSH1 0x41 PUSH1 0x4 MSTORE PUSH1 0x24 PUSH0 REVERT JUMPDEST PUSH32 0x4E487B7100000000000000000000000000000000000000000000000000000000 PUSH0 MSTORE PUSH1 0x22 PUSH1 0x4 MSTORE PUSH1 0x24 PUSH0 REVERT JUMPDEST PUSH0 PUSH1 0x2 DUP3 DIV SWAP1 POP PUSH1 0x1 DUP3 AND DUP1 PUSH3 0x3DC JUMPI PUSH1 0x7F DUP3 AND SWAP2 POP JUMPDEST PUSH1 0x20 DUP3 LT DUP2 SUB PUSH3 0x3F2 JUMPI PUSH3 0x3F1 PUSH3 0x397 JUMP JUMPDEST JUMPDEST POP SWAP2 SWAP1 POP JUMP JUMPDEST PUSH0 DUP2 SWAP1 POP DUP2 PUSH0 MSTORE PUSH1 0x20 PUSH0 KECCAK256 SWAP1 POP SWAP2 SWAP1 POP JUMP JUMPDEST PUSH0 PUSH1 0x20 PUSH1 0x1F DUP4 ADD DIV SWAP1 POP SWAP2 SWAP1 POP JUMP JUMPDEST PUSH0 DUP3 DUP3 SHL SWAP1 POP SWAP3 SWAP2 POP POP JUMP JUMPDEST PUSH0 PUSH1 0x8 DUP4 MUL PUSH3 0x456 PUSH32 0xFFFFFFFFFFFFFFFFFFFFFFFFFFFFFFFFFFFFFFFFFFFFFFFFFFFFFFFFFFFFFFFF DUP3 PUSH3 0x419 JUMP JUMPDEST PUSH3 0x462 DUP7 DUP4 PUSH3 0x419 JUMP JUMPDEST SWAP6 POP DUP1 NOT DUP5 AND SWAP4 POP DUP1 DUP7 AND DUP5 OR SWAP3 POP POP POP SWAP4 SWAP3 POP POP POP JUMP JUMPDEST PUSH0 DUP2 SWAP1 POP SWAP2 SWAP1 POP JUMP JUMPDEST PUSH0 DUP2 SWAP1 POP SWAP2 SWAP1 POP JUMP JUMPDEST PUSH0 PUSH3 0x4AC PUSH3 0x4A6 PUSH3 0x4A0 DUP5 PUSH3 0x47A JUMP JUMPDEST PUSH3 0x483 JUMP JUMPDEST PUSH3 0x47A JUMP JUMPDEST SWAP1 POP SWAP2 SWAP1 POP JUMP JUMPDEST PUSH0 DUP2 SWAP1 POP SWAP2 SWAP1 POP JUMP JUMPDEST PUSH3 0x4C7 DUP4 PUSH3 0x48C JUMP JUMPDEST PUSH3 0x4DF PUSH3 0x4D6 DUP3 PUSH3 0x4B3 JUMP JUMPDEST DUP5 DUP5 SLOAD PUSH3 0x425 JUMP JUMPDEST DUP3 SSTORE POP POP POP POP JUMP JUMPDEST PUSH0 SWAP1 JUMP JUMPDEST PUSH3 0x4F5 PUSH3 0x4E7 JUMP JUMPDEST PUSH3 0x502 DUP2 DUP5 DUP5 PUSH3 0x4BC JUMP JUMPDEST POP POP POP JUMP JUMPDEST JUMPDEST DUP2 DUP2 LT ISZERO PUSH3 0x529 JUMPI PUSH3 0x51D PUSH0 DUP3 PUSH3 0x4EB JUMP JUMPDEST PUSH1 0x1 DUP2 ADD SWAP1 POP PUSH3 0x508 JUMP JUMPDEST POP POP JUMP JUMPDEST PUSH1 0x1F DUP3 GT ISZERO PUSH3 0x578 JUMPI PUSH3 0x542 DUP2 PUSH3 0x3F8 JUMP JUMPDEST PUSH3 0x54D DUP5 PUSH3 0x40A JUMP JUMPDEST DUP2 ADD PUSH1 0x20 DUP6 LT ISZERO PUSH3 0x55D JUMPI DUP2 SWAP1 POP JUMPDEST PUSH3 0x575 PUSH3 0x56C DUP6 PUSH3 0x40A JUMP JUMPDEST DUP4 ADD DUP3 PUSH3 0x507 JUMP JUMPDEST POP POP JUMPDEST POP POP POP JUMP JUMPDEST PUSH0 DUP3 DUP3 SHR SWAP1 POP SWAP3 SWAP2 POP POP JUMP JUMPDEST PUSH0 PUSH3 0x59A PUSH0 NOT DUP5 PUSH1 0x8 MUL PUSH3 0x57D JUMP JUMPDEST NOT DUP1 DUP4 AND SWAP2 POP POP SWAP3 SWAP2 POP POP JUMP JUMPDEST PUSH0 PUSH3 0x5B4 DUP4 DUP4 PUSH3 0x589 JUMP JUMPDEST SWAP2 POP DUP3 PUSH1 0x2 MUL DUP3 OR SWAP1 POP SWAP3 SWAP2 POP POP JUMP JUMPDEST PUSH3 0x5CF DUP3 PUSH3 0x360 JUMP JUMPDEST PUSH8 0xFFFFFFFFFFFFFFFF DUP2 GT ISZERO PUSH3 0x5EB JUMPI PUSH3 0x5EA PUSH3 0x36A JUMP JUMPDEST JUMPDEST PUSH3 0x5F7 DUP3 SLOAD PUSH3 0x3C4 JUMP JUMPDEST PUSH3 0x604 DUP3 DUP3 DUP6 PUSH3 0x52D JUMP JUMPDEST PUSH0 PUSH1 0x20 SWAP1 POP PUSH1 0x1F DUP4 GT PUSH1 0x1 DUP2 EQ PUSH3 0x63A JUMPI PUSH0 DUP5 ISZERO PUSH3 0x625 JUMPI DUP3 DUP8 ADD MLOAD SWAP1 POP JUMPDEST PUSH3 0x631 DUP6 DUP3 PUSH3 0x5A7 JUMP JUMPDEST DUP7 SSTORE POP PUSH3 0x6A0 JUMP JUMPDEST PUSH1 0x1F NOT DUP5 AND PUSH3 0x64A DUP7 PUSH3 0x3F8 JUMP JUMPDEST PUSH0 JUMPDEST DUP3 DUP2 LT ISZERO PUSH3 0x673 JUMPI DUP5 DUP10 ADD MLOAD DUP3 SSTORE PUSH1 0x1 DUP3 ADD SWAP2 POP PUSH1 0x20 DUP6 ADD SWAP5 POP PUSH1 0x20 DUP2 ADD SWAP1 POP PUSH3 0x64C JUMP JUMPDEST DUP7 DUP4 LT ISZERO PUSH3 0x693 JUMPI DUP5 DUP10 ADD MLOAD PUSH3 0x68F PUSH1 0x1F DUP10 AND DUP3 PUSH3 0x589 JUMP JUMPDEST DUP4 SSTORE POP JUMPDEST PUSH1 0x1 PUSH1 0x2 DUP9 MUL ADD DUP9 SSTORE POP POP POP JUMPDEST POP POP POP POP POP POP JUMP JUMPDEST PUSH0 DUP3 DUP3 MSTORE PUSH1 0x20 DUP3 ADD SWAP1 POP SWAP3 SWAP2 POP POP JUMP JUMPDEST PUSH32 0x45524332303A206D696E7420746F20746865207A65726F206164647265737300 PUSH0 DUP3 ADD MSTORE POP JUMP JUMPDEST PUSH0 PUSH3 0x6EE PUSH1 0x1F DUP4 PUSH3 0x6A8 JUMP JUMPDEST SWAP2 POP PUSH3 0x6FB DUP3 PUSH3 0x6B8 JUMP JUMPDEST PUSH1 0x20 DUP3 ADD SWAP1 POP SWAP2 SWAP1 POP JUMP JUMPDEST PUSH0 PUSH1 0x20 DUP3 ADD SWAP1 POP DUP2 DUP2 SUB PUSH0 DUP4 ADD MSTORE PUSH3 0x71F DUP2 PUSH3 0x6E0 JUMP JUMPDEST SWAP1 POP SWAP2 SWAP1 POP JUMP JUMPDEST PUSH32 0x4E487B7100000000000000000000000000000000000000000000000000000000 PUSH0 MSTORE PUSH1 0x11 PUSH1 0x4 MSTORE PUSH1 0x24 PUSH0 REVERT JUMPDEST PUSH0 PUSH3 0x75F DUP3 PUSH3 0x47A JUMP JUMPDEST SWAP2 POP PUSH3 0x76C DUP4 PUSH3 0x47A JUMP JUMPDEST SWAP3 POP DUP3 DUP3 ADD SWAP1 POP DUP1 DUP3 GT ISZERO PUSH3 0x787 JUMPI PUSH3 0x786 PUSH3 0x726 JUMP JUMPDEST JUMPDEST SWAP3 SWAP2 POP POP JUMP JUMPDEST PUSH3 0x798 DUP2 PUSH3 0x47A JUMP JUMPDEST DUP3 MSTORE POP POP JUMP JUMPDEST PUSH0 PUSH1 0x20 DUP3 ADD SWAP1 POP PUSH3 0x7B3 PUSH0 DUP4 ADD DUP5 PUSH3 0x78D JUMP JUMPDEST SWAP3 SWAP2 POP POP JUMP JUMPDEST PUSH2 0x2236 DUP1 PUSH3 0x7C7 PUSH0 CODECOPY PUSH0 RETURN INVALID PUSH1 0x80 PUSH1 0x40 MSTORE PUSH1 0x4 CALLDATASIZE LT PUSH2 0x14A JUMPI PUSH0 CALLDATALOAD PUSH1 0xE0 SHR DUP1 PUSH4 0x8DA5CB5B GT PUSH2 0xB5 JUMPI DUP1 PUSH4 0xC753E126 GT PUSH2 0x6E JUMPI DUP1 PUSH4 0xC753E126 EQ PUSH2 0x486 JUMPI DUP1 PUSH4 0xDD62ED3E EQ PUSH2 0x4AE JUMPI DUP1 PUSH4 0xE096B265 EQ PUSH2 0x4EA JUMPI DUP1 PUSH4 0xE4997DC5 EQ PUSH2 0x512 JUMPI DUP1 PUSH4 0xF2FDE38B EQ PUSH2 0x53A JUMPI DUP1 PUSH4 0xF851A440 EQ PUSH2 0x562 JUMPI PUSH2 0x14A JUMP JUMPDEST DUP1 PUSH4 0x8DA5CB5B EQ PUSH2 0x356 JUMPI DUP1 PUSH4 0x95D89B41 EQ PUSH2 0x380 JUMPI DUP1 PUSH4 0xA457C2D7 EQ PUSH2 0x3AA JUMPI DUP1 PUSH4 0xA9059CBB EQ PUSH2 0x3E6 JUMPI DUP1 PUSH4 0xB36D6919 EQ PUSH2 0x422 JUMPI DUP1 PUSH4 0xB5F07EA1 EQ PUSH2 0x45E JUMPI PUSH2 0x14A JUMP JUMPDEST DUP1 PUSH4 0x313CE567 GT PUSH2 0x107 JUMPI DUP1 PUSH4 0x313CE567 EQ PUSH2 0x25E JUMPI DUP1 PUSH4 0x39509351 EQ PUSH2 0x288 JUMPI DUP1 PUSH4 0x534844A2 EQ PUSH2 0x2C4 JUMPI DUP1 PUSH4 0x70A08231 EQ PUSH2 0x2DA JUMPI DUP1 PUSH4 0x715018A6 EQ PUSH2 0x316 JUMPI DUP1 PUSH4 0x7FF9B596 EQ PUSH2 0x32C JUMPI PUSH2 0x14A JUMP JUMPDEST DUP1 PUSH4 0x6FDDE03 EQ PUSH2 0x14E JUMPI DUP1 PUSH4 0x95EA7B3 EQ PUSH2 0x178 JUMPI DUP1 PUSH4 0xECB93C0 EQ PUSH2 0x1B4 JUMPI DUP1 PUSH4 0x18160DDD EQ PUSH2 0x1DC JUMPI DUP1 PUSH4 0x23B872DD EQ PUSH2 0x206 JUMPI DUP1 PUSH4 0x2D296BF1 EQ PUSH2 0x242 JUMPI JUMPDEST PUSH0 DUP1 REVERT JUMPDEST CALLVALUE DUP1 ISZERO PUSH2 0x159 JUMPI PUSH0 DUP1 REVERT JUMPDEST POP PUSH2 0x162 PUSH2 0x58C JUMP JUMPDEST PUSH1 0x40 MLOAD PUSH2 0x16F SWAP2 SWAP1 PUSH2 0x170A JUMP JUMPDEST PUSH1 0x40 MLOAD DUP1 SWAP2 SUB SWAP1 RETURN JUMPDEST CALLVALUE DUP1 ISZERO PUSH2 0x183 JUMPI PUSH0 DUP1 REVERT JUMPDEST POP PUSH2 0x19E PUSH1 0x4 DUP1 CALLDATASIZE SUB DUP2 ADD SWAP1 PUSH2 0x199 SWAP2 SWAP1 PUSH2 0x17BB JUMP JUMPDEST PUSH2 0x61C JUMP JUMPDEST PUSH1 0x40 MLOAD PUSH2 0x1AB SWAP2 SWAP1 PUSH2 0x1813 JUMP JUMPDEST PUSH1 0x40 MLOAD DUP1 SWAP2 SUB SWAP1 RETURN JUMPDEST CALLVALUE DUP1 ISZERO PUSH2 0x1BF JUMPI PUSH0 DUP1 REVERT JUMPDEST POP PUSH2 0x1DA PUSH1 0x4 DUP1 CALLDATASIZE SUB DUP2 ADD SWAP1 PUSH2 0x1D5 SWAP2 SWAP1 PUSH2 0x182C JUMP JUMPDEST PUSH2 0x63E JUMP JUMPDEST STOP JUMPDEST CALLVALUE DUP1 ISZERO PUSH2 0x1E7 JUMPI PUSH0 DUP1 REVERT JUMPDEST POP PUSH2 0x1F0 PUSH2 0x725 JUMP JUMPDEST PUSH1 0x40 MLOAD PUSH2 0x1FD SWAP2 SWAP1 PUSH2 0x1866 JUMP JUMPDEST PUSH1 0x40 MLOAD DUP1 SWAP2 SUB SWAP1 RETURN JUMPDEST CALLVALUE DUP1 ISZERO PUSH2 0x211 JUMPI PUSH0 DUP1 REVERT JUMPDEST POP PUSH2 0x22C PUSH1 0x4 DUP1 CALLDATASIZE SUB DUP2 ADD SWAP1 PUSH2 0x227 SWAP2 SWAP1 PUSH2 0x187F JUMP JUMPDEST PUSH2 0x72E JUMP JUMPDEST PUSH1 0x40 MLOAD PUSH2 0x239 SWAP2 SWAP1 PUSH2 0x1813 JUMP JUMPDEST PUSH1 0x40 MLOAD DUP1 SWAP2 SUB SWAP1 RETURN JUMPDEST PUSH2 0x25C PUSH1 0x4 DUP1 CALLDATASIZE SUB DUP2 ADD SWAP1 PUSH2 0x257 SWAP2 SWAP1 PUSH2 0x18CF JUMP JUMPDEST PUSH2 0x7B6 JUMP JUMPDEST STOP JUMPDEST CALLVALUE DUP1 ISZERO PUSH2 0x269 JUMPI PUSH0 DUP1 REVERT JUMPDEST POP PUSH2 0x272 PUSH2 0x882 JUMP JUMPDEST PUSH1 0x40 MLOAD PUSH2 0x27F SWAP2 SWAP1 PUSH2 0x1915 JUMP JUMPDEST PUSH1 0x40 MLOAD DUP1 SWAP2 SUB SWAP1 RETURN JUMPDEST CALLVALUE DUP1 ISZERO PUSH2 0x293 JUMPI PUSH0 DUP1 REVERT JUMPDEST POP PUSH2 0x2AE PUSH1 0x4 DUP1 CALLDATASIZE SUB DUP2 ADD SWAP1 PUSH2 0x2A9 SWAP2 SWAP1 PUSH2 0x17BB JUMP JUMPDEST PUSH2 0x88A JUMP JUMPDEST PUSH1 0x40 MLOAD PUSH2 0x2BB SWAP2 SWAP1 PUSH2 0x1813 JUMP JUMPDEST PUSH1 0x40 MLOAD DUP1 SWAP2 SUB SWAP1 RETURN JUMPDEST CALLVALUE DUP1 ISZERO PUSH2 0x2CF JUMPI PUSH0 DUP1 REVERT JUMPDEST POP PUSH2 0x2D8 PUSH2 0x8C0 JUMP JUMPDEST STOP JUMPDEST CALLVALUE DUP1 ISZERO PUSH2 0x2E5 JUMPI PUSH0 DUP1 REVERT JUMPDEST POP PUSH2 0x300 PUSH1 0x4 DUP1 CALLDATASIZE SUB DUP2 ADD SWAP1 PUSH2 0x2FB SWAP2 SWAP1 PUSH2 0x182C JUMP JUMPDEST PUSH2 0x92F JUMP JUMPDEST PUSH1 0x40 MLOAD PUSH2 0x30D SWAP2 SWAP1 PUSH2 0x1866 JUMP JUMPDEST PUSH1 0x40 MLOAD DUP1 SWAP2 SUB SWAP1 RETURN JUMPDEST CALLVALUE DUP1 ISZERO PUSH2 0x321 JUMPI PUSH0 DUP1 REVERT JUMPDEST POP PUSH2 0x32A PUSH2 0x974 JUMP JUMPDEST STOP JUMPDEST CALLVALUE DUP1 ISZERO PUSH2 0x337 JUMPI PUSH0 DUP1 REVERT JUMPDEST POP PUSH2 0x340 PUSH2 0x987 JUMP JUMPDEST PUSH1 0x40 MLOAD PUSH2 0x34D SWAP2 SWAP1 PUSH2 0x1866 JUMP JUMPDEST PUSH1 0x40 MLOAD DUP1 SWAP2 SUB SWAP1 RETURN JUMPDEST CALLVALUE DUP1 ISZERO PUSH2 0x361 JUMPI PUSH0 DUP1 REVERT JUMPDEST POP PUSH2 0x36A PUSH2 0x98D JUMP JUMPDEST PUSH1 0x40 MLOAD PUSH2 0x377 SWAP2 SWAP1 PUSH2 0x193D JUMP JUMPDEST PUSH1 0x40 MLOAD DUP1 SWAP2 SUB SWAP1 RETURN JUMPDEST CALLVALUE DUP1 ISZERO PUSH2 0x38B JUMPI PUSH0 DUP1 REVERT JUMPDEST POP PUSH2 0x394 PUSH2 0x9B5 JUMP JUMPDEST PUSH1 0x40 MLOAD PUSH2 0x3A1 SWAP2 SWAP1 PUSH2 0x170A JUMP JUMPDEST PUSH1 0x40 MLOAD DUP1 SWAP2 SUB SWAP1 RETURN JUMPDEST CALLVALUE DUP1 ISZERO PUSH2 0x3B5 JUMPI PUSH0 DUP1 REVERT JUMPDEST POP PUSH2 0x3D0 PUSH1 0x4 DUP1 CALLDATASIZE SUB DUP2 ADD SWAP1 PUSH2 0x3CB SWAP2 SWAP1 PUSH2 0x17BB JUMP JUMPDEST PUSH2 0xA45 JUMP JUMPDEST PUSH1 0x40 MLOAD PUSH2 0x3DD SWAP2 SWAP1 PUSH2 0x1813 JUMP JUMPDEST PUSH1 0x40 MLOAD DUP1 SWAP2 SUB SWAP1 RETURN JUMPDEST CALLVALUE DUP1 ISZERO PUSH2 0x3F1 JUMPI PUSH0 DUP1 REVERT JUMPDEST POP PUSH2 0x40C PUSH1 0x4 DUP1 CALLDATASIZE SUB DUP2 ADD SWAP1 PUSH2 0x407 SWAP2 SWAP1 PUSH2 0x17BB JUMP JUMPDEST PUSH2 0xABA JUMP JUMPDEST PUSH1 0x40 MLOAD PUSH2 0x419 SWAP2 SWAP1 PUSH2 0x1813 JUMP JUMPDEST PUSH1 0x40 MLOAD DUP1 SWAP2 SUB SWAP1 RETURN JUMPDEST CALLVALUE DUP1 ISZERO PUSH2 0x42D JUMPI PUSH0 DUP1 REVERT JUMPDEST POP PUSH2 0x448 PUSH1 0x4 DUP1 CALLDATASIZE SUB DUP2 ADD SWAP1 PUSH2 0x443 SWAP2 SWAP1 PUSH2 0x182C JUMP JUMPDEST PUSH2 0xB37 JUMP JUMPDEST PUSH1 0x40 MLOAD PUSH2 0x455 SWAP2 SWAP1 PUSH2 0x1813 JUMP JUMPDEST PUSH1 0x40 MLOAD DUP1 SWAP2 SUB SWAP1 RETURN JUMPDEST CALLVALUE DUP1 ISZERO PUSH2 0x469 JUMPI PUSH0 DUP1 REVERT JUMPDEST POP PUSH2 0x484 PUSH1 0x4 DUP1 CALLDATASIZE SUB DUP2 ADD SWAP1 PUSH2 0x47F SWAP2 SWAP1 PUSH2 0x18CF JUMP JUMPDEST PUSH2 0xB89 JUMP JUMPDEST STOP JUMPDEST CALLVALUE DUP1 ISZERO PUSH2 0x491 JUMPI PUSH0 DUP1 REVERT JUMPDEST POP PUSH2 0x4AC PUSH1 0x4 DUP1 CALLDATASIZE SUB DUP2 ADD SWAP1 PUSH2 0x4A7 SWAP2 SWAP1 PUSH2 0x17BB JUMP JUMPDEST PUSH2 0xBA5 JUMP JUMPDEST STOP JUMPDEST CALLVALUE DUP1 ISZERO PUSH2 0x4B9 JUMPI PUSH0 DUP1 REVERT JUMPDEST POP PUSH2 0x4D4 PUSH1 0x4 DUP1 CALLDATASIZE SUB DUP2 ADD SWAP1 PUSH2 0x4CF SWAP2 SWAP1 PUSH2 0x1956 JUMP JUMPDEST PUSH2 0xBBB JUMP JUMPDEST PUSH1 0x40 MLOAD PUSH2 0x4E1 SWAP2 SWAP1 PUSH2 0x1866 JUMP JUMPDEST PUSH1 0x40 MLOAD DUP1 SWAP2 SUB SWAP1 RETURN JUMPDEST CALLVALUE DUP1 ISZERO PUSH2 0x4F5 JUMPI PUSH0 DUP1 REVERT JUMPDEST POP PUSH2 0x510 PUSH1 0x4 DUP1 CALLDATASIZE SUB DUP2 ADD SWAP1 PUSH2 0x50B SWAP2 SWAP1 PUSH2 0x18CF JUMP JUMPDEST PUSH2 0xC3D JUMP JUMPDEST STOP JUMPDEST CALLVALUE DUP1 ISZERO PUSH2 0x51D JUMPI PUSH0 DUP1 REVERT JUMPDEST POP PUSH2 0x538 PUSH1 0x4 DUP1 CALLDATASIZE SUB DUP2 ADD SWAP1 PUSH2 0x533 SWAP2 SWAP1 PUSH2 0x182C JUMP JUMPDEST PUSH2 0xC65 JUMP JUMPDEST STOP JUMPDEST CALLVALUE DUP1 ISZERO PUSH2 0x545 JUMPI PUSH0 DUP1 REVERT JUMPDEST POP PUSH2 0x560 PUSH1 0x4 DUP1 CALLDATASIZE SUB DUP2 ADD SWAP1 PUSH2 0x55B SWAP2 SWAP1 PUSH2 0x182C JUMP JUMPDEST PUSH2 0xCBC JUMP JUMPDEST STOP JUMPDEST CALLVALUE DUP1 ISZERO PUSH2 0x56D JUMPI PUSH0 DUP1 REVERT JUMPDEST POP PUSH2 0x576 PUSH2 0xD3E JUMP JUMPDEST PUSH1 0x40 MLOAD PUSH2 0x583 SWAP2 SWAP1 PUSH2 0x193D JUMP JUMPDEST PUSH1 0x40 MLOAD DUP1 SWAP2 SUB SWAP1 RETURN JUMPDEST PUSH1 0x60 PUSH1 0x3 DUP1 SLOAD PUSH2 0x59B SWAP1 PUSH2 0x19C1 JUMP JUMPDEST DUP1 PUSH1 0x1F ADD PUSH1 0x20 DUP1 SWAP2 DIV MUL PUSH1 0x20 ADD PUSH1 0x40 MLOAD SWAP1 DUP2 ADD PUSH1 0x40 MSTORE DUP1 SWAP3 SWAP2 SWAP1 DUP2 DUP2 MSTORE PUSH1 0x20 ADD DUP3 DUP1 SLOAD PUSH2 0x5C7 SWAP1 PUSH2 0x19C1 JUMP JUMPDEST DUP1 ISZERO PUSH2 0x612 JUMPI DUP1 PUSH1 0x1F LT PUSH2 0x5E9 JUMPI PUSH2 0x100 DUP1 DUP4 SLOAD DIV MUL DUP4 MSTORE SWAP2 PUSH1 0x20 ADD SWAP2 PUSH2 0x612 JUMP JUMPDEST DUP3 ADD SWAP2 SWAP1 PUSH0 MSTORE PUSH1 0x20 PUSH0 KECCAK256 SWAP1 JUMPDEST DUP2 SLOAD DUP2 MSTORE SWAP1 PUSH1 0x1 ADD SWAP1 PUSH1 0x20 ADD DUP1 DUP4 GT PUSH2 0x5F5 JUMPI DUP3 SWAP1 SUB PUSH1 0x1F AND DUP3 ADD SWAP2 JUMPDEST POP POP POP POP POP SWAP1 POP SWAP1 JUMP JUMPDEST PUSH0 DUP1 PUSH2 0x626 PUSH2 0xD63 JUMP JUMPDEST SWAP1 POP PUSH2 0x633 DUP2 DUP6 DUP6 PUSH2 0xD6A JUMP JUMPDEST PUSH1 0x1 SWAP2 POP POP SWAP3 SWAP2 POP POP JUMP JUMPDEST PUSH1 0x6 PUSH0 SWAP1 SLOAD SWAP1 PUSH2 0x100 EXP SWAP1 DIV PUSH20 0xFFFFFFFFFFFFFFFFFFFFFFFFFFFFFFFFFFFFFFFF AND PUSH20 0xFFFFFFFFFFFFFFFFFFFFFFFFFFFFFFFFFFFFFFFF AND CALLER PUSH20 0xFFFFFFFFFFFFFFFFFFFFFFFFFFFFFFFFFFFFFFFF AND EQ PUSH2 0x6CD JUMPI PUSH1 0x40 MLOAD PUSH32 0x8C379A000000000000000000000000000000000000000000000000000000000 DUP2 MSTORE PUSH1 0x4 ADD PUSH2 0x6C4 SWAP1 PUSH2 0x1A3B JUMP JUMPDEST PUSH1 0x40 MLOAD DUP1 SWAP2 SUB SWAP1 REVERT JUMPDEST PUSH1 0x1 PUSH1 0x7 PUSH0 DUP4 PUSH20 0xFFFFFFFFFFFFFFFFFFFFFFFFFFFFFFFFFFFFFFFF AND PUSH20 0xFFFFFFFFFFFFFFFFFFFFFFFFFFFFFFFFFFFFFFFF AND DUP2 MSTORE PUSH1 0x20 ADD SWAP1 DUP2 MSTORE PUSH1 0x20 ADD PUSH0 KECCAK256 PUSH0 PUSH2 0x100 EXP DUP2 SLOAD DUP2 PUSH1 0xFF MUL NOT AND SWAP1 DUP4 ISZERO ISZERO MUL OR SWAP1 SSTORE POP POP JUMP JUMPDEST PUSH0 PUSH1 0x2 SLOAD SWAP1 POP SWAP1 JUMP JUMPDEST PUSH0 PUSH2 0x738 DUP5 PUSH2 0xB37 JUMP JUMPDEST DUP1 ISZERO PUSH2 0x74A JUMPI POP PUSH2 0x748 DUP4 PUSH2 0xB37 JUMP JUMPDEST ISZERO JUMPDEST PUSH2 0x789 JUMPI PUSH1 0x40 MLOAD PUSH32 0x8C379A000000000000000000000000000000000000000000000000000000000 DUP2 MSTORE PUSH1 0x4 ADD PUSH2 0x780 SWAP1 PUSH2 0x1AA3 JUMP JUMPDEST PUSH1 0x40 MLOAD DUP1 SWAP2 SUB SWAP1 REVERT JUMPDEST PUSH0 PUSH2 0x792 PUSH2 0xD63 JUMP JUMPDEST SWAP1 POP PUSH2 0x79F DUP6 DUP3 DUP6 PUSH2 0xF2D JUMP JUMPDEST PUSH2 0x7AA DUP6 DUP6 DUP6 PUSH2 0xFB8 JUMP JUMPDEST PUSH1 0x1 SWAP2 POP POP SWAP4 SWAP3 POP POP POP JUMP JUMPDEST PUSH2 0x7BF CALLER PUSH2 0xB37 JUMP JUMPDEST ISZERO PUSH2 0x7FF JUMPI PUSH1 0x40 MLOAD PUSH32 0x8C379A000000000000000000000000000000000000000000000000000000000 DUP2 MSTORE PUSH1 0x4 ADD PUSH2 0x7F6 SWAP1 PUSH2 0x1AA3 JUMP JUMPDEST PUSH1 0x40 MLOAD DUP1 SWAP2 SUB SWAP1 REVERT JUMPDEST PUSH0 PUSH1 0x8 SLOAD DUP3 PUSH2 0x80E SWAP2 SWAP1 PUSH2 0x1AEE JUMP JUMPDEST SWAP1 POP DUP1 CALLVALUE EQ PUSH2 0x852 JUMPI PUSH1 0x40 MLOAD PUSH32 0x8C379A000000000000000000000000000000000000000000000000000000000 DUP2 MSTORE PUSH1 0x4 ADD PUSH2 0x849 SWAP1 PUSH2 0x1B79 JUMP JUMPDEST PUSH1 0x40 MLOAD DUP1 SWAP2 SUB SWAP1 REVERT JUMPDEST PUSH2 0x87E PUSH1 0x6 PUSH0 SWAP1 SLOAD SWAP1 PUSH2 0x100 EXP SWAP1 DIV PUSH20 0xFFFFFFFFFFFFFFFFFFFFFFFFFFFFFFFFFFFFFFFF AND CALLER DUP5 PUSH2 0xFB8 JUMP JUMPDEST POP POP JUMP JUMPDEST PUSH0 PUSH1 0x12 SWAP1 POP SWAP1 JUMP JUMPDEST PUSH0 DUP1 PUSH2 0x894 PUSH2 0xD63 JUMP JUMPDEST SWAP1 POP PUSH2 0x8B5 DUP2 DUP6 DUP6 PUSH2 0x8A6 DUP6 DUP10 PUSH2 0xBBB JUMP JUMPDEST PUSH2 0x8B0 SWAP2 SWAP1 PUSH2 0x1B97 JUMP JUMPDEST PUSH2 0xD6A JUMP JUMPDEST PUSH1 0x1 SWAP2 POP POP SWAP3 SWAP2 POP POP JUMP JUMPDEST PUSH2 0x8C8 PUSH2 0x1224 JUMP JUMPDEST PUSH1 0x6 PUSH0 SWAP1 SLOAD SWAP1 PUSH2 0x100 EXP SWAP1 DIV PUSH20 0xFFFFFFFFFFFFFFFFFFFFFFFFFFFFFFFFFFFFFFFF AND PUSH20 0xFFFFFFFFFFFFFFFFFFFFFFFFFFFFFFFFFFFFFFFF AND PUSH2 0x8FC SELFBALANCE SWAP1 DUP2 ISZERO MUL SWAP1 PUSH1 0x40 MLOAD PUSH0 PUSH1 0x40 MLOAD DUP1 DUP4 SUB DUP2 DUP6 DUP9 DUP9 CALL SWAP4 POP POP POP POP ISZERO DUP1 ISZERO PUSH2 0x92C JUMPI RETURNDATASIZE PUSH0 DUP1 RETURNDATACOPY RETURNDATASIZE PUSH0 REVERT JUMPDEST POP JUMP JUMPDEST PUSH0 DUP1 PUSH0 DUP4 PUSH20 0xFFFFFFFFFFFFFFFFFFFFFFFFFFFFFFFFFFFFFFFF AND PUSH20 0xFFFFFFFFFFFFFFFFFFFFFFFFFFFFFFFFFFFFFFFF AND DUP2 MSTORE PUSH1 0x20 ADD SWAP1 DUP2 MSTORE PUSH1 0x20 ADD PUSH0 KECCAK256 SLOAD SWAP1 POP SWAP2 SWAP1 POP JUMP JUMPDEST PUSH2 0x97C PUSH2 0x1224 JUMP JUMPDEST PUSH2 0x985 PUSH0 PUSH2 0x12A2 JUMP JUMPDEST JUMP JUMPDEST PUSH1 0x8 SLOAD DUP2 JUMP JUMPDEST PUSH0 PUSH1 0x5 PUSH0 SWAP1 SLOAD SWAP1 PUSH2 0x100 EXP SWAP1 DIV PUSH20 0xFFFFFFFFFFFFFFFFFFFFFFFFFFFFFFFFFFFFFFFF AND SWAP1 POP SWAP1 JUMP JUMPDEST PUSH1 0x60 PUSH1 0x4 DUP1 SLOAD PUSH2 0x9C4 SWAP1 PUSH2 0x19C1 JUMP JUMPDEST DUP1 PUSH1 0x1F ADD PUSH1 0x20 DUP1 SWAP2 DIV MUL PUSH1 0x20 ADD PUSH1 0x40 MLOAD SWAP1 DUP2 ADD PUSH1 0x40 MSTORE DUP1 SWAP3 SWAP2 SWAP1 DUP2 DUP2 MSTORE PUSH1 0x20 ADD DUP3 DUP1 SLOAD PUSH2 0x9F0 SWAP1 PUSH2 0x19C1 JUMP JUMPDEST DUP1 ISZERO PUSH2 0xA3B JUMPI DUP1 PUSH1 0x1F LT PUSH2 0xA12 JUMPI PUSH2 0x100 DUP1 DUP4 SLOAD DIV MUL DUP4 MSTORE SWAP2 PUSH1 0x20 ADD SWAP2 PUSH2 0xA3B JUMP JUMPDEST DUP3 ADD SWAP2 SWAP1 PUSH0 MSTORE PUSH1 0x20 PUSH0 KECCAK256 SWAP1 JUMPDEST DUP2 SLOAD DUP2 MSTORE SWAP1 PUSH1 0x1 ADD SWAP1 PUSH1 0x20 ADD DUP1 DUP4 GT PUSH2 0xA1E JUMPI DUP3 SWAP1 SUB PUSH1 0x1F AND DUP3 ADD SWAP2 JUMPDEST POP POP POP POP POP SWAP1 POP SWAP1 JUMP JUMPDEST PUSH0 DUP1 PUSH2 0xA4F PUSH2 0xD63 JUMP JUMPDEST SWAP1 POP PUSH0 PUSH2 0xA5C DUP3 DUP7 PUSH2 0xBBB JUMP JUMPDEST SWAP1 POP DUP4 DUP2 LT ISZERO PUSH2 0xAA1 JUMPI PUSH1 0x40 MLOAD PUSH32 0x8C379A000000000000000000000000000000000000000000000000000000000 DUP2 MSTORE PUSH1 0x4 ADD PUSH2 0xA98 SWAP1 PUSH2 0x1C3A JUMP JUMPDEST PUSH1 0x40 MLOAD DUP1 SWAP2 SUB SWAP1 REVERT JUMPDEST PUSH2 0xAAE DUP3 DUP7 DUP7 DUP5 SUB PUSH2 0xD6A JUMP JUMPDEST PUSH1 0x1 SWAP3 POP POP POP SWAP3 SWAP2 POP POP JUMP JUMPDEST PUSH0 PUSH2 0xAC4 CALLER PUSH2 0xB37 JUMP JUMPDEST ISZERO DUP1 ISZERO PUSH2 0xAD7 JUMPI POP PUSH2 0xAD5 DUP4 PUSH2 0xB37 JUMP JUMPDEST ISZERO JUMPDEST PUSH2 0xB16 JUMPI PUSH1 0x40 MLOAD PUSH32 0x8C379A000000000000000000000000000000000000000000000000000000000 DUP2 MSTORE PUSH1 0x4 ADD PUSH2 0xB0D SWAP1 PUSH2 0x1AA3 JUMP JUMPDEST PUSH1 0x40 MLOAD DUP1 SWAP2 SUB SWAP1 REVERT JUMPDEST PUSH0 PUSH2 0xB1F PUSH2 0xD63 JUMP JUMPDEST SWAP1 POP PUSH2 0xB2C DUP2 DUP6 DUP6 PUSH2 0xFB8 JUMP JUMPDEST PUSH1 0x1 SWAP2 POP POP SWAP3 SWAP2 POP POP JUMP JUMPDEST PUSH0 PUSH1 0x7 PUSH0 DUP4 PUSH20 0xFFFFFFFFFFFFFFFFFFFFFFFFFFFFFFFFFFFFFFFF AND PUSH20 0xFFFFFFFFFFFFFFFFFFFFFFFFFFFFFFFFFFFFFFFF AND DUP2 MSTORE PUSH1 0x20 ADD SWAP1 DUP2 MSTORE PUSH1 0x20 ADD PUSH0 KECCAK256 PUSH0 SWAP1 SLOAD SWAP1 PUSH2 0x100 EXP SWAP1 DIV PUSH1 0xFF AND SWAP1 POP SWAP2 SWAP1 POP JUMP JUMPDEST PUSH2 0xB91 PUSH2 0x1224 JUMP JUMPDEST PUSH2 0xBA2 PUSH2 0xB9C PUSH2 0x98D JUMP JUMPDEST DUP3 PUSH2 0x1365 JUMP JUMPDEST POP JUMP JUMPDEST PUSH2 0xBAD PUSH2 0x1224 JUMP JUMPDEST PUSH2 0xBB7 DUP3 DUP3 PUSH2 0x1365 JUMP JUMPDEST POP POP JUMP JUMPDEST PUSH0 PUSH1 0x1 PUSH0 DUP5 PUSH20 0xFFFFFFFFFFFFFFFFFFFFFFFFFFFFFFFFFFFFFFFF AND PUSH20 0xFFFFFFFFFFFFFFFFFFFFFFFFFFFFFFFFFFFFFFFF AND DUP2 MSTORE PUSH1 0x20 ADD SWAP1 DUP2 MSTORE PUSH1 0x20 ADD PUSH0 KECCAK256 PUSH0 DUP4 PUSH20 0xFFFFFFFFFFFFFFFFFFFFFFFFFFFFFFFFFFFFFFFF AND PUSH20 0xFFFFFFFFFFFFFFFFFFFFFFFFFFFFFFFFFFFFFFFF AND DUP2 MSTORE PUSH1 0x20 ADD SWAP1 DUP2 MSTORE PUSH1 0x20 ADD PUSH0 KECCAK256 SLOAD SWAP1 POP SWAP3 SWAP2 POP POP JUMP JUMPDEST PUSH2 0xC45 PUSH2 0x1224 JUMP JUMPDEST PUSH2 0xC62 CALLER PUSH8 0xDE0B6B3A7640000 DUP4 PUSH2 0xC5D SWAP2 SWAP1 PUSH2 0x1AEE JUMP JUMPDEST PUSH2 0x1528 JUMP JUMPDEST POP JUMP JUMPDEST PUSH0 PUSH1 0x7 PUSH0 DUP4 PUSH20 0xFFFFFFFFFFFFFFFFFFFFFFFFFFFFFFFFFFFFFFFF AND PUSH20 0xFFFFFFFFFFFFFFFFFFFFFFFFFFFFFFFFFFFFFFFF AND DUP2 MSTORE PUSH1 0x20 ADD SWAP1 DUP2 MSTORE PUSH1 0x20 ADD PUSH0 KECCAK256 PUSH0 PUSH2 0x100 EXP DUP2 SLOAD DUP2 PUSH1 0xFF MUL NOT AND SWAP1 DUP4 ISZERO ISZERO MUL OR SWAP1 SSTORE POP POP JUMP JUMPDEST PUSH2 0xCC4 PUSH2 0x1224 JUMP JUMPDEST PUSH0 PUSH20 0xFFFFFFFFFFFFFFFFFFFFFFFFFFFFFFFFFFFFFFFF AND DUP2 PUSH20 0xFFFFFFFFFFFFFFFFFFFFFFFFFFFFFFFFFFFFFFFF AND SUB PUSH2 0xD32 JUMPI PUSH1 0x40 MLOAD PUSH32 0x8C379A000000000000000000000000000000000000000000000000000000000 DUP2 MSTORE PUSH1 0x4 ADD PUSH2 0xD29 SWAP1 PUSH2 0x1CC8 JUMP JUMPDEST PUSH1 0x40 MLOAD DUP1 SWAP2 SUB SWAP1 REVERT JUMPDEST PUSH2 0xD3B DUP2 PUSH2 0x12A2 JUMP JUMPDEST POP JUMP JUMPDEST PUSH1 0x6 PUSH0 SWAP1 SLOAD SWAP1 PUSH2 0x100 EXP SWAP1 DIV PUSH20 0xFFFFFFFFFFFFFFFFFFFFFFFFFFFFFFFFFFFFFFFF AND DUP2 JUMP JUMPDEST PUSH0 CALLER SWAP1 POP SWAP1 JUMP JUMPDEST PUSH0 PUSH20 0xFFFFFFFFFFFFFFFFFFFFFFFFFFFFFFFFFFFFFFFF AND DUP4 PUSH20 0xFFFFFFFFFFFFFFFFFFFFFFFFFFFFFFFFFFFFFFFF AND SUB PUSH2 0xDD8 JUMPI PUSH1 0x40 MLOAD PUSH32 0x8C379A000000000000000000000000000000000000000000000000000000000 DUP2 MSTORE PUSH1 0x4 ADD PUSH2 0xDCF SWAP1 PUSH2 0x1D56 JUMP JUMPDEST PUSH1 0x40 MLOAD DUP1 SWAP2 SUB SWAP1 REVERT JUMPDEST PUSH0 PUSH20 0xFFFFFFFFFFFFFFFFFFFFFFFFFFFFFFFFFFFFFFFF AND DUP3 PUSH20 0xFFFFFFFFFFFFFFFFFFFFFFFFFFFFFFFFFFFFFFFF AND SUB PUSH2 0xE46 JUMPI PUSH1 0x40 MLOAD PUSH32 0x8C379A000000000000000000000000000000000000000000000000000000000 DUP2 MSTORE PUSH1 0x4 ADD PUSH2 0xE3D SWAP1 PUSH2 0x1DE4 JUMP JUMPDEST PUSH1 0x40 MLOAD DUP1 SWAP2 SUB SWAP1 REVERT JUMPDEST DUP1 PUSH1 0x1 PUSH0 DUP6 PUSH20 0xFFFFFFFFFFFFFFFFFFFFFFFFFFFFFFFFFFFFFFFF AND PUSH20 0xFFFFFFFFFFFFFFFFFFFFFFFFFFFFFFFFFFFFFFFF AND DUP2 MSTORE PUSH1 0x20 ADD SWAP1 DUP2 MSTORE PUSH1 0x20 ADD PUSH0 KECCAK256 PUSH0 DUP5 PUSH20 0xFFFFFFFFFFFFFFFFFFFFFFFFFFFFFFFFFFFFFFFF AND PUSH20 0xFFFFFFFFFFFFFFFFFFFFFFFFFFFFFFFFFFFFFFFF AND DUP2 MSTORE PUSH1 0x20 ADD SWAP1 DUP2 MSTORE PUSH1 0x20 ADD PUSH0 KECCAK256 DUP2 SWAP1 SSTORE POP DUP2 PUSH20 0xFFFFFFFFFFFFFFFFFFFFFFFFFFFFFFFFFFFFFFFF AND DUP4 PUSH20 0xFFFFFFFFFFFFFFFFFFFFFFFFFFFFFFFFFFFFFFFF AND PUSH32 0x8C5BE1E5EBEC7D5BD14F71427D1E84F3DD0314C0F7B2291E5B200AC8C7C3B925 DUP4 PUSH1 0x40 MLOAD PUSH2 0xF20 SWAP2 SWAP1 PUSH2 0x1866 JUMP JUMPDEST PUSH1 0x40 MLOAD DUP1 SWAP2 SUB SWAP1 LOG3 POP POP POP JUMP JUMPDEST PUSH0 PUSH2 0xF38 DUP5 DUP5 PUSH2 0xBBB JUMP JUMPDEST SWAP1 POP PUSH32 0xFFFFFFFFFFFFFFFFFFFFFFFFFFFFFFFFFFFFFFFFFFFFFFFFFFFFFFFFFFFFFFFF DUP2 EQ PUSH2 0xFB2 JUMPI DUP2 DUP2 LT ISZERO PUSH2 0xFA4 JUMPI PUSH1 0x40 MLOAD PUSH32 0x8C379A000000000000000000000000000000000000000000000000000000000 DUP2 MSTORE PUSH1 0x4 ADD PUSH2 0xF9B SWAP1 PUSH2 0x1E4C JUMP JUMPDEST PUSH1 0x40 MLOAD DUP1 SWAP2 SUB SWAP1 REVERT JUMPDEST PUSH2 0xFB1 DUP5 DUP5 DUP5 DUP5 SUB PUSH2 0xD6A JUMP JUMPDEST JUMPDEST POP POP POP POP JUMP JUMPDEST PUSH0 PUSH20 0xFFFFFFFFFFFFFFFFFFFFFFFFFFFFFFFFFFFFFFFF AND DUP4 PUSH20 0xFFFFFFFFFFFFFFFFFFFFFFFFFFFFFFFFFFFFFFFF AND SUB PUSH2 0x1026 JUMPI PUSH1 0x40 MLOAD PUSH32 0x8C379A000000000000000000000000000000000000000000000000000000000 DUP2 MSTORE PUSH1 0x4 ADD PUSH2 0x101D SWAP1 PUSH2 0x1EDA JUMP JUMPDEST PUSH1 0x40 MLOAD DUP1 SWAP2 SUB SWAP1 REVERT JUMPDEST PUSH0 PUSH20 0xFFFFFFFFFFFFFFFFFFFFFFFFFFFFFFFFFFFFFFFF AND DUP3 PUSH20 0xFFFFFFFFFFFFFFFFFFFFFFFFFFFFFFFFFFFFFFFF AND SUB PUSH2 0x1094 JUMPI PUSH1 0x40 MLOAD PUSH32 0x8C379A000000000000000000000000000000000000000000000000000000000 DUP2 MSTORE PUSH1 0x4 ADD PUSH2 0x108B SWAP1 PUSH2 0x1F68 JUMP JUMPDEST PUSH1 0x40 MLOAD DUP1 SWAP2 SUB SWAP1 REVERT JUMPDEST PUSH2 0x109F DUP4 DUP4 DUP4 PUSH2 0x1676 JUMP JUMPDEST PUSH0 DUP1 PUSH0 DUP6 PUSH20 0xFFFFFFFFFFFFFFFFFFFFFFFFFFFFFFFFFFFFFFFF AND PUSH20 0xFFFFFFFFFFFFFFFFFFFFFFFFFFFFFFFFFFFFFFFF AND DUP2 MSTORE PUSH1 0x20 ADD SWAP1 DUP2 MSTORE PUSH1 0x20 ADD PUSH0 KECCAK256 SLOAD SWAP1 POP DUP2 DUP2 LT ISZERO PUSH2 0x1122 JUMPI PUSH1 0x40 MLOAD PUSH32 0x8C379A000000000000000000000000000000000000000000000000000000000 DUP2 MSTORE PUSH1 0x4 ADD PUSH2 0x1119 SWAP1 PUSH2 0x1FF6 JUMP JUMPDEST PUSH1 0x40 MLOAD DUP1 SWAP2 SUB SWAP1 REVERT JUMPDEST DUP2 DUP2 SUB PUSH0 DUP1 DUP7 PUSH20 0xFFFFFFFFFFFFFFFFFFFFFFFFFFFFFFFFFFFFFFFF AND PUSH20 0xFFFFFFFFFFFFFFFFFFFFFFFFFFFFFFFFFFFFFFFF AND DUP2 MSTORE PUSH1 0x20 ADD SWAP1 DUP2 MSTORE PUSH1 0x20 ADD PUSH0 KECCAK256 DUP2 SWAP1 SSTORE POP DUP2 PUSH0 DUP1 DUP6 PUSH20 0xFFFFFFFFFFFFFFFFFFFFFFFFFFFFFFFFFFFFFFFF AND PUSH20 0xFFFFFFFFFFFFFFFFFFFFFFFFFFFFFFFFFFFFFFFF AND DUP2 MSTORE PUSH1 0x20 ADD SWAP1 DUP2 MSTORE PUSH1 0x20 ADD PUSH0 KECCAK256 PUSH0 DUP3 DUP3 SLOAD ADD SWAP3 POP POP DUP2 SWAP1 SSTORE POP DUP3 PUSH20 0xFFFFFFFFFFFFFFFFFFFFFFFFFFFFFFFFFFFFFFFF AND DUP5 PUSH20 0xFFFFFFFFFFFFFFFFFFFFFFFFFFFFFFFFFFFFFFFF AND PUSH32 0xDDF252AD1BE2C89B69C2B068FC378DAA952BA7F163C4A11628F55A4DF523B3EF DUP5 PUSH1 0x40 MLOAD PUSH2 0x120B SWAP2 SWAP1 PUSH2 0x1866 JUMP JUMPDEST PUSH1 0x40 MLOAD DUP1 SWAP2 SUB SWAP1 LOG3 PUSH2 0x121E DUP5 DUP5 DUP5 PUSH2 0x167B JUMP JUMPDEST POP POP POP POP JUMP JUMPDEST PUSH2 0x122C PUSH2 0xD63 JUMP JUMPDEST PUSH20 0xFFFFFFFFFFFFFFFFFFFFFFFFFFFFFFFFFFFFFFFF AND PUSH2 0x124A PUSH2 0x98D JUMP JUMPDEST PUSH20 0xFFFFFFFFFFFFFFFFFFFFFFFFFFFFFFFFFFFFFFFF AND EQ PUSH2 0x12A0 JUMPI PUSH1 0x40 MLOAD PUSH32 0x8C379A000000000000000000000000000000000000000000000000000000000 DUP2 MSTORE PUSH1 0x4 ADD PUSH2 0x1297 SWAP1 PUSH2 0x205E JUMP JUMPDEST PUSH1 0x40 MLOAD DUP1 SWAP2 SUB SWAP1 REVERT JUMPDEST JUMP JUMPDEST PUSH0 PUSH1 0x5 PUSH0 SWAP1 SLOAD SWAP1 PUSH2 0x100 EXP SWAP1 DIV PUSH20 0xFFFFFFFFFFFFFFFFFFFFFFFFFFFFFFFFFFFFFFFF AND SWAP1 POP DUP2 PUSH1 0x5 PUSH0 PUSH2 0x100 EXP DUP2 SLOAD DUP2 PUSH20 0xFFFFFFFFFFFFFFFFFFFFFFFFFFFFFFFFFFFFFFFF MUL NOT AND SWAP1 DUP4 PUSH20 0xFFFFFFFFFFFFFFFFFFFFFFFFFFFFFFFFFFFFFFFF AND MUL OR SWAP1 SSTORE POP DUP2 PUSH20 0xFFFFFFFFFFFFFFFFFFFFFFFFFFFFFFFFFFFFFFFF AND DUP2 PUSH20 0xFFFFFFFFFFFFFFFFFFFFFFFFFFFFFFFFFFFFFFFF AND PUSH32 0x8BE0079C531659141344CD1FD0A4F28419497F9722A3DAAFE3B4186F6B6457E0 PUSH1 0x40 MLOAD PUSH1 0x40 MLOAD DUP1 SWAP2 SUB SWAP1 LOG3 POP POP JUMP JUMPDEST PUSH0 PUSH20 0xFFFFFFFFFFFFFFFFFFFFFFFFFFFFFFFFFFFFFFFF AND DUP3 PUSH20 0xFFFFFFFFFFFFFFFFFFFFFFFFFFFFFFFFFFFFFFFF AND SUB PUSH2 0x13D3 JUMPI PUSH1 0x40 MLOAD PUSH32 0x8C379A000000000000000000000000000000000000000000000000000000000 DUP2 MSTORE PUSH1 0x4 ADD PUSH2 0x13CA SWAP1 PUSH2 0x20EC JUMP JUMPDEST PUSH1 0x40 MLOAD DUP1 SWAP2 SUB SWAP1 REVERT JUMPDEST PUSH2 0x13DE DUP3 PUSH0 DUP4 PUSH2 0x1676 JUMP JUMPDEST PUSH0 DUP1 PUSH0 DUP5 PUSH20 0xFFFFFFFFFFFFFFFFFFFFFFFFFFFFFFFFFFFFFFFF AND PUSH20 0xFFFFFFFFFFFFFFFFFFFFFFFFFFFFFFFFFFFFFFFF AND DUP2 MSTORE PUSH1 0x20 ADD SWAP1 DUP2 MSTORE PUSH1 0x20 ADD PUSH0 KECCAK256 SLOAD SWAP1 POP DUP2 DUP2 LT ISZERO PUSH2 0x1461 JUMPI PUSH1 0x40 MLOAD PUSH32 0x8C379A000000000000000000000000000000000000000000000000000000000 DUP2 MSTORE PUSH1 0x4 ADD PUSH2 0x1458 SWAP1 PUSH2 0x217A JUMP JUMPDEST PUSH1 0x40 MLOAD DUP1 SWAP2 SUB SWAP1 REVERT JUMPDEST DUP2 DUP2 SUB PUSH0 DUP1 DUP6 PUSH20 0xFFFFFFFFFFFFFFFFFFFFFFFFFFFFFFFFFFFFFFFF AND PUSH20 0xFFFFFFFFFFFFFFFFFFFFFFFFFFFFFFFFFFFFFFFF AND DUP2 MSTORE PUSH1 0x20 ADD SWAP1 DUP2 MSTORE PUSH1 0x20 ADD PUSH0 KECCAK256 DUP2 SWAP1 SSTORE POP DUP2 PUSH1 0x2 PUSH0 DUP3 DUP3 SLOAD SUB SWAP3 POP POP DUP2 SWAP1 SSTORE POP PUSH0 PUSH20 0xFFFFFFFFFFFFFFFFFFFFFFFFFFFFFFFFFFFFFFFF AND DUP4 PUSH20 0xFFFFFFFFFFFFFFFFFFFFFFFFFFFFFFFFFFFFFFFF AND PUSH32 0xDDF252AD1BE2C89B69C2B068FC378DAA952BA7F163C4A11628F55A4DF523B3EF DUP5 PUSH1 0x40 MLOAD PUSH2 0x1510 SWAP2 SWAP1 PUSH2 0x1866 JUMP JUMPDEST PUSH1 0x40 MLOAD DUP1 SWAP2 SUB SWAP1 LOG3 PUSH2 0x1523 DUP4 PUSH0 DUP5 PUSH2 0x167B JUMP JUMPDEST POP POP POP JUMP JUMPDEST PUSH0 PUSH20 0xFFFFFFFFFFFFFFFFFFFFFFFFFFFFFFFFFFFFFFFF AND DUP3 PUSH20 0xFFFFFFFFFFFFFFFFFFFFFFFFFFFFFFFFFFFFFFFF AND SUB PUSH2 0x1596 JUMPI PUSH1 0x40 MLOAD PUSH32 0x8C379A000000000000000000000000000000000000000000000000000000000 DUP2 MSTORE PUSH1 0x4 ADD PUSH2 0x158D SWAP1 PUSH2 0x21E2 JUMP JUMPDEST PUSH1 0x40 MLOAD DUP1 SWAP2 SUB SWAP1 REVERT JUMPDEST PUSH2 0x15A1 PUSH0 DUP4 DUP4 PUSH2 0x1676 JUMP JUMPDEST DUP1 PUSH1 0x2 PUSH0 DUP3 DUP3 SLOAD PUSH2 0x15B2 SWAP2 SWAP1 PUSH2 0x1B97 JUMP JUMPDEST SWAP3 POP POP DUP2 SWAP1 SSTORE POP DUP1 PUSH0 DUP1 DUP5 PUSH20 0xFFFFFFFFFFFFFFFFFFFFFFFFFFFFFFFFFFFFFFFF AND PUSH20 0xFFFFFFFFFFFFFFFFFFFFFFFFFFFFFFFFFFFFFFFF AND DUP2 MSTORE PUSH1 0x20 ADD SWAP1 DUP2 MSTORE PUSH1 0x20 ADD PUSH0 KECCAK256 PUSH0 DUP3 DUP3 SLOAD ADD SWAP3 POP POP DUP2 SWAP1 SSTORE POP DUP2 PUSH20 0xFFFFFFFFFFFFFFFFFFFFFFFFFFFFFFFFFFFFFFFF AND PUSH0 PUSH20 0xFFFFFFFFFFFFFFFFFFFFFFFFFFFFFFFFFFFFFFFF AND PUSH32 0xDDF252AD1BE2C89B69C2B068FC378DAA952BA7F163C4A11628F55A4DF523B3EF DUP4 PUSH1 0x40 MLOAD PUSH2 0x165F SWAP2 SWAP1 PUSH2 0x1866 JUMP JUMPDEST PUSH1 0x40 MLOAD DUP1 SWAP2 SUB SWAP1 LOG3 PUSH2 0x1672 PUSH0 DUP4 DUP4 PUSH2 0x167B JUMP JUMPDEST POP POP JUMP JUMPDEST POP POP POP JUMP JUMPDEST POP POP POP JUMP JUMPDEST PUSH0 DUP2 MLOAD SWAP1 POP SWAP2 SWAP1 POP JUMP JUMPDEST PUSH0 DUP3 DUP3 MSTORE PUSH1 0x20 DUP3 ADD SWAP1 POP SWAP3 SWAP2 POP POP JUMP JUMPDEST PUSH0 JUMPDEST DUP4 DUP2 LT ISZERO PUSH2 0x16B7 JUMPI DUP1 DUP3 ADD MLOAD DUP2 DUP5 ADD MSTORE PUSH1 0x20 DUP2 ADD SWAP1 POP PUSH2 0x169C JUMP JUMPDEST PUSH0 DUP5 DUP5 ADD MSTORE POP POP POP POP JUMP JUMPDEST PUSH0 PUSH1 0x1F NOT PUSH1 0x1F DUP4 ADD AND SWAP1 POP SWAP2 SWAP1 POP JUMP JUMPDEST PUSH0 PUSH2 0x16DC DUP3 PUSH2 0x1680 JUMP JUMPDEST PUSH2 0x16E6 DUP2 DUP6 PUSH2 0x168A JUMP JUMPDEST SWAP4 POP PUSH2 0x16F6 DUP2 DUP6 PUSH1 0x20 DUP7 ADD PUSH2 0x169A JUMP JUMPDEST PUSH2 0x16FF DUP2 PUSH2 0x16C2 JUMP JUMPDEST DUP5 ADD SWAP2 POP POP SWAP3 SWAP2 POP POP JUMP JUMPDEST PUSH0 PUSH1 0x20 DUP3 ADD SWAP1 POP DUP2 DUP2 SUB PUSH0 DUP4 ADD MSTORE PUSH2 0x1722 DUP2 DUP5 PUSH2 0x16D2 JUMP JUMPDEST SWAP1 POP SWAP3 SWAP2 POP POP JUMP JUMPDEST PUSH0 DUP1 REVERT JUMPDEST PUSH0 PUSH20 0xFFFFFFFFFFFFFFFFFFFFFFFFFFFFFFFFFFFFFFFF DUP3 AND SWAP1 POP SWAP2 SWAP1 POP JUMP JUMPDEST PUSH0 PUSH2 0x1757 DUP3 PUSH2 0x172E JUMP JUMPDEST SWAP1 POP SWAP2 SWAP1 POP JUMP JUMPDEST PUSH2 0x1767 DUP2 PUSH2 0x174D JUMP JUMPDEST DUP2 EQ PUSH2 0x1771 JUMPI PUSH0 DUP1 REVERT JUMPDEST POP JUMP JUMPDEST PUSH0 DUP2 CALLDATALOAD SWAP1 POP PUSH2 0x1782 DUP2 PUSH2 0x175E JUMP JUMPDEST SWAP3 SWAP2 POP POP JUMP JUMPDEST PUSH0 DUP2 SWAP1 POP SWAP2 SWAP1 POP JUMP JUMPDEST PUSH2 0x179A DUP2 PUSH2 0x1788 JUMP JUMPDEST DUP2 EQ PUSH2 0x17A4 JUMPI PUSH0 DUP1 REVERT JUMPDEST POP JUMP JUMPDEST PUSH0 DUP2 CALLDATALOAD SWAP1 POP PUSH2 0x17B5 DUP2 PUSH2 0x1791 JUMP JUMPDEST SWAP3 SWAP2 POP POP JUMP JUMPDEST PUSH0 DUP1 PUSH1 0x40 DUP4 DUP6 SUB SLT ISZERO PUSH2 0x17D1 JUMPI PUSH2 0x17D0 PUSH2 0x172A JUMP JUMPDEST JUMPDEST PUSH0 PUSH2 0x17DE DUP6 DUP3 DUP7 ADD PUSH2 0x1774 JUMP JUMPDEST SWAP3 POP POP PUSH1 0x20 PUSH2 0x17EF DUP6 DUP3 DUP7 ADD PUSH2 0x17A7 JUMP JUMPDEST SWAP2 POP POP SWAP3 POP SWAP3 SWAP1 POP JUMP JUMPDEST PUSH0 DUP2 ISZERO ISZERO SWAP1 POP SWAP2 SWAP1 POP JUMP JUMPDEST PUSH2 0x180D DUP2 PUSH2 0x17F9 JUMP JUMPDEST DUP3 MSTORE POP POP JUMP JUMPDEST PUSH0 PUSH1 0x20 DUP3 ADD SWAP1 POP PUSH2 0x1826 PUSH0 DUP4 ADD DUP5 PUSH2 0x1804 JUMP JUMPDEST SWAP3 SWAP2 POP POP JUMP JUMPDEST PUSH0 PUSH1 0x20 DUP3 DUP5 SUB SLT ISZERO PUSH2 0x1841 JUMPI PUSH2 0x1840 PUSH2 0x172A JUMP JUMPDEST JUMPDEST PUSH0 PUSH2 0x184E DUP5 DUP3 DUP6 ADD PUSH2 0x1774 JUMP JUMPDEST SWAP2 POP POP SWAP3 SWAP2 POP POP JUMP JUMPDEST PUSH2 0x1860 DUP2 PUSH2 0x1788 JUMP JUMPDEST DUP3 MSTORE POP POP JUMP JUMPDEST PUSH0 PUSH1 0x20 DUP3 ADD SWAP1 POP PUSH2 0x1879 PUSH0 DUP4 ADD DUP5 PUSH2 0x1857 JUMP JUMPDEST SWAP3 SWAP2 POP POP JUMP JUMPDEST PUSH0 DUP1 PUSH0 PUSH1 0x60 DUP5 DUP7 SUB SLT ISZERO PUSH2 0x1896 JUMPI PUSH2 0x1895 PUSH2 0x172A JUMP JUMPDEST JUMPDEST PUSH0 PUSH2 0x18A3 DUP7 DUP3 DUP8 ADD PUSH2 0x1774 JUMP JUMPDEST SWAP4 POP POP PUSH1 0x20 PUSH2 0x18B4 DUP7 DUP3 DUP8 ADD PUSH2 0x1774 JUMP JUMPDEST SWAP3 POP POP PUSH1 0x40 PUSH2 0x18C5 DUP7 DUP3 DUP8 ADD PUSH2 0x17A7 JUMP JUMPDEST SWAP2 POP POP SWAP3 POP SWAP3 POP SWAP3 JUMP JUMPDEST PUSH0 PUSH1 0x20 DUP3 DUP5 SUB SLT ISZERO PUSH2 0x18E4 JUMPI PUSH2 0x18E3 PUSH2 0x172A JUMP JUMPDEST JUMPDEST PUSH0 PUSH2 0x18F1 DUP5 DUP3 DUP6 ADD PUSH2 0x17A7 JUMP JUMPDEST SWAP2 POP POP SWAP3 SWAP2 POP POP JUMP JUMPDEST PUSH0 PUSH1 0xFF DUP3 AND SWAP1 POP SWAP2 SWAP1 POP JUMP JUMPDEST PUSH2 0x190F DUP2 PUSH2 0x18FA JUMP JUMPDEST DUP3 MSTORE POP POP JUMP JUMPDEST PUSH0 PUSH1 0x20 DUP3 ADD SWAP1 POP PUSH2 0x1928 PUSH0 DUP4 ADD DUP5 PUSH2 0x1906 JUMP JUMPDEST SWAP3 SWAP2 POP POP JUMP JUMPDEST PUSH2 0x1937 DUP2 PUSH2 0x174D JUMP JUMPDEST DUP3 MSTORE POP POP JUMP JUMPDEST PUSH0 PUSH1 0x20 DUP3 ADD SWAP1 POP PUSH2 0x1950 PUSH0 DUP4 ADD DUP5 PUSH2 0x192E JUMP JUMPDEST SWAP3 SWAP2 POP POP JUMP JUMPDEST PUSH0 DUP1 PUSH1 0x40 DUP4 DUP6 SUB SLT ISZERO PUSH2 0x196C JUMPI PUSH2 0x196B PUSH2 0x172A JUMP JUMPDEST JUMPDEST PUSH0 PUSH2 0x1979 DUP6 DUP3 DUP7 ADD PUSH2 0x1774 JUMP JUMPDEST SWAP3 POP POP PUSH1 0x20 PUSH2 0x198A DUP6 DUP3 DUP7 ADD PUSH2 0x1774 JUMP JUMPDEST SWAP2 POP POP SWAP3 POP SWAP3 SWAP1 POP JUMP JUMPDEST PUSH32 0x4E487B7100000000000000000000000000000000000000000000000000000000 PUSH0 MSTORE PUSH1 0x22 PUSH1 0x4 MSTORE PUSH1 0x24 PUSH0 REVERT JUMPDEST PUSH0 PUSH1 0x2 DUP3 DIV SWAP1 POP PUSH1 0x1 DUP3 AND DUP1 PUSH2 0x19D8 JUMPI PUSH1 0x7F DUP3 AND SWAP2 POP JUMPDEST PUSH1 0x20 DUP3 LT DUP2 SUB PUSH2 0x19EB JUMPI PUSH2 0x19EA PUSH2 0x1994 JUMP JUMPDEST JUMPDEST POP SWAP2 SWAP1 POP JUMP JUMPDEST PUSH32 0x596F752063616E20646F20746869730000000000000000000000000000000000 PUSH0 DUP3 ADD MSTORE POP JUMP JUMPDEST PUSH0 PUSH2 0x1A25 PUSH1 0xF DUP4 PUSH2 0x168A JUMP JUMPDEST SWAP2 POP PUSH2 0x1A30 DUP3 PUSH2 0x19F1 JUMP JUMPDEST PUSH1 0x20 DUP3 ADD SWAP1 POP SWAP2 SWAP1 POP JUMP JUMPDEST PUSH0 PUSH1 0x20 DUP3 ADD SWAP1 POP DUP2 DUP2 SUB PUSH0 DUP4 ADD MSTORE PUSH2 0x1A52 DUP2 PUSH2 0x1A19 JUMP JUMPDEST SWAP1 POP SWAP2 SWAP1 POP JUMP JUMPDEST PUSH32 0x596F752061726520626C61636B6C697374656400000000000000000000000000 PUSH0 DUP3 ADD MSTORE POP JUMP JUMPDEST PUSH0 PUSH2 0x1A8D PUSH1 0x13 DUP4 PUSH2 0x168A JUMP JUMPDEST SWAP2 POP PUSH2 0x1A98 DUP3 PUSH2 0x1A59 JUMP JUMPDEST PUSH1 0x20 DUP3 ADD SWAP1 POP SWAP2 SWAP1 POP JUMP JUMPDEST PUSH0 PUSH1 0x20 DUP3 ADD SWAP1 POP DUP2 DUP2 SUB PUSH0 DUP4 ADD MSTORE PUSH2 0x1ABA DUP2 PUSH2 0x1A81 JUMP JUMPDEST SWAP1 POP SWAP2 SWAP1 POP JUMP JUMPDEST PUSH32 0x4E487B7100000000000000000000000000000000000000000000000000000000 PUSH0 MSTORE PUSH1 0x11 PUSH1 0x4 MSTORE PUSH1 0x24 PUSH0 REVERT JUMPDEST PUSH0 PUSH2 0x1AF8 DUP3 PUSH2 0x1788 JUMP JUMPDEST SWAP2 POP PUSH2 0x1B03 DUP4 PUSH2 0x1788 JUMP JUMPDEST SWAP3 POP DUP3 DUP3 MUL PUSH2 0x1B11 DUP2 PUSH2 0x1788 JUMP JUMPDEST SWAP2 POP DUP3 DUP3 DIV DUP5 EQ DUP4 ISZERO OR PUSH2 0x1B28 JUMPI PUSH2 0x1B27 PUSH2 0x1AC1 JUMP JUMPDEST JUMPDEST POP SWAP3 SWAP2 POP POP JUMP JUMPDEST PUSH32 0x416D6F756E74206973206C657373000000000000000000000000000000000000 PUSH0 DUP3 ADD MSTORE POP JUMP JUMPDEST PUSH0 PUSH2 0x1B63 PUSH1 0xE DUP4 PUSH2 0x168A JUMP JUMPDEST SWAP2 POP PUSH2 0x1B6E DUP3 PUSH2 0x1B2F JUMP JUMPDEST PUSH1 0x20 DUP3 ADD SWAP1 POP SWAP2 SWAP1 POP JUMP JUMPDEST PUSH0 PUSH1 0x20 DUP3 ADD SWAP1 POP DUP2 DUP2 SUB PUSH0 DUP4 ADD MSTORE PUSH2 0x1B90 DUP2 PUSH2 0x1B57 JUMP JUMPDEST SWAP1 POP SWAP2 SWAP1 POP JUMP JUMPDEST PUSH0 PUSH2 0x1BA1 DUP3 PUSH2 0x1788 JUMP JUMPDEST SWAP2 POP PUSH2 0x1BAC DUP4 PUSH2 0x1788 JUMP JUMPDEST SWAP3 POP DUP3 DUP3 ADD SWAP1 POP DUP1 DUP3 GT ISZERO PUSH2 0x1BC4 JUMPI PUSH2 0x1BC3 PUSH2 0x1AC1 JUMP JUMPDEST JUMPDEST SWAP3 SWAP2 POP POP JUMP JUMPDEST PUSH32 0x45524332303A2064656372656173656420616C6C6F77616E63652062656C6F77 PUSH0 DUP3 ADD MSTORE PUSH32 0x207A65726F000000000000000000000000000000000000000000000000000000 PUSH1 0x20 DUP3 ADD MSTORE POP JUMP JUMPDEST PUSH0 PUSH2 0x1C24 PUSH1 0x25 DUP4 PUSH2 0x168A JUMP JUMPDEST SWAP2 POP PUSH2 0x1C2F DUP3 PUSH2 0x1BCA JUMP JUMPDEST PUSH1 0x40 DUP3 ADD SWAP1 POP SWAP2 SWAP1 POP JUMP JUMPDEST PUSH0 PUSH1 0x20 DUP3 ADD SWAP1 POP DUP2 DUP2 SUB PUSH0 DUP4 ADD MSTORE PUSH2 0x1C51 DUP2 PUSH2 0x1C18 JUMP JUMPDEST SWAP1 POP SWAP2 SWAP1 POP JUMP JUMPDEST PUSH32 0x4F776E61626C653A206E6577206F776E657220697320746865207A65726F2061 PUSH0 DUP3 ADD MSTORE PUSH32 0x6464726573730000000000000000000000000000000000000000000000000000 PUSH1 0x20 DUP3 ADD MSTORE POP JUMP JUMPDEST PUSH0 PUSH2 0x1CB2 PUSH1 0x26 DUP4 PUSH2 0x168A JUMP JUMPDEST SWAP2 POP PUSH2 0x1CBD DUP3 PUSH2 0x1C58 JUMP JUMPDEST PUSH1 0x40 DUP3 ADD SWAP1 POP SWAP2 SWAP1 POP JUMP JUMPDEST PUSH0 PUSH1 0x20 DUP3 ADD SWAP1 POP DUP2 DUP2 SUB PUSH0 DUP4 ADD MSTORE PUSH2 0x1CDF DUP2 PUSH2 0x1CA6 JUMP JUMPDEST SWAP1 POP SWAP2 SWAP1 POP JUMP JUMPDEST PUSH32 0x45524332303A20617070726F76652066726F6D20746865207A65726F20616464 PUSH0 DUP3 ADD MSTORE PUSH32 0x7265737300000000000000000000000000000000000000000000000000000000 PUSH1 0x20 DUP3 ADD MSTORE POP JUMP JUMPDEST PUSH0 PUSH2 0x1D40 PUSH1 0x24 DUP4 PUSH2 0x168A JUMP JUMPDEST SWAP2 POP PUSH2 0x1D4B DUP3 PUSH2 0x1CE6 JUMP JUMPDEST PUSH1 0x40 DUP3 ADD SWAP1 POP SWAP2 SWAP1 POP JUMP JUMPDEST PUSH0 PUSH1 0x20 DUP3 ADD SWAP1 POP DUP2 DUP2 SUB PUSH0 DUP4 ADD MSTORE PUSH2 0x1D6D DUP2 PUSH2 0x1D34 JUMP JUMPDEST SWAP1 POP SWAP2 SWAP1 POP JUMP JUMPDEST PUSH32 0x45524332303A20617070726F766520746F20746865207A65726F206164647265 PUSH0 DUP3 ADD MSTORE PUSH32 0x7373000000000000000000000000000000000000000000000000000000000000 PUSH1 0x20 DUP3 ADD MSTORE POP JUMP JUMPDEST PUSH0 PUSH2 0x1DCE PUSH1 0x22 DUP4 PUSH2 0x168A JUMP JUMPDEST SWAP2 POP PUSH2 0x1DD9 DUP3 PUSH2 0x1D74 JUMP JUMPDEST PUSH1 0x40 DUP3 ADD SWAP1 POP SWAP2 SWAP1 POP JUMP JUMPDEST PUSH0 PUSH1 0x20 DUP3 ADD SWAP1 POP DUP2 DUP2 SUB PUSH0 DUP4 ADD MSTORE PUSH2 0x1DFB DUP2 PUSH2 0x1DC2 JUMP JUMPDEST SWAP1 POP SWAP2 SWAP1 POP JUMP JUMPDEST PUSH32 0x45524332303A20696E73756666696369656E7420616C6C6F77616E6365000000 PUSH0 DUP3 ADD MSTORE POP JUMP JUMPDEST PUSH0 PUSH2 0x1E36 PUSH1 0x1D DUP4 PUSH2 0x168A JUMP JUMPDEST SWAP2 POP PUSH2 0x1E41 DUP3 PUSH2 0x1E02 JUMP JUMPDEST PUSH1 0x20 DUP3 ADD SWAP1 POP SWAP2 SWAP1 POP JUMP JUMPDEST PUSH0 PUSH1 0x20 DUP3 ADD SWAP1 POP DUP2 DUP2 SUB PUSH0 DUP4 ADD MSTORE PUSH2 0x1E63 DUP2 PUSH2 0x1E2A JUMP JUMPDEST SWAP1 POP SWAP2 SWAP1 POP JUMP JUMPDEST PUSH32 0x45524332303A207472616E736665722066726F6D20746865207A65726F206164 PUSH0 DUP3 ADD MSTORE PUSH32 0x6472657373000000000000000000000000000000000000000000000000000000 PUSH1 0x20 DUP3 ADD MSTORE POP JUMP JUMPDEST PUSH0 PUSH2 0x1EC4 PUSH1 0x25 DUP4 PUSH2 0x168A JUMP JUMPDEST SWAP2 POP PUSH2 0x1ECF DUP3 PUSH2 0x1E6A JUMP JUMPDEST PUSH1 0x40 DUP3 ADD SWAP1 POP SWAP2 SWAP1 POP JUMP JUMPDEST PUSH0 PUSH1 0x20 DUP3 ADD SWAP1 POP DUP2 DUP2 SUB PUSH0 DUP4 ADD MSTORE PUSH2 0x1EF1 DUP2 PUSH2 0x1EB8 JUMP JUMPDEST SWAP1 POP SWAP2 SWAP1 POP JUMP JUMPDEST PUSH32 0x45524332303A207472616E7366657220746F20746865207A65726F2061646472 PUSH0 DUP3 ADD MSTORE PUSH32 0x6573730000000000000000000000000000000000000000000000000000000000 PUSH1 0x20 DUP3 ADD MSTORE POP JUMP JUMPDEST PUSH0 PUSH2 0x1F52 PUSH1 0x23 DUP4 PUSH2 0x168A JUMP JUMPDEST SWAP2 POP PUSH2 0x1F5D DUP3 PUSH2 0x1EF8 JUMP JUMPDEST PUSH1 0x40 DUP3 ADD SWAP1 POP SWAP2 SWAP1 POP JUMP JUMPDEST PUSH0 PUSH1 0x20 DUP3 ADD SWAP1 POP DUP2 DUP2 SUB PUSH0 DUP4 ADD MSTORE PUSH2 0x1F7F DUP2 PUSH2 0x1F46 JUMP JUMPDEST SWAP1 POP SWAP2 SWAP1 POP JUMP JUMPDEST PUSH32 0x45524332303A207472616E7366657220616D6F756E7420657863656564732062 PUSH0 DUP3 ADD MSTORE PUSH32 0x616C616E63650000000000000000000000000000000000000000000000000000 PUSH1 0x20 DUP3 ADD MSTORE POP JUMP JUMPDEST PUSH0 PUSH2 0x1FE0 PUSH1 0x26 DUP4 PUSH2 0x168A JUMP JUMPDEST SWAP2 POP PUSH2 0x1FEB DUP3 PUSH2 0x1F86 JUMP JUMPDEST PUSH1 0x40 DUP3 ADD SWAP1 POP SWAP2 SWAP1 POP JUMP JUMPDEST PUSH0 PUSH1 0x20 DUP3 ADD SWAP1 POP DUP2 DUP2 SUB PUSH0 DUP4 ADD MSTORE PUSH2 0x200D DUP2 PUSH2 0x1FD4 JUMP JUMPDEST SWAP1 POP SWAP2 SWAP1 POP JUMP JUMPDEST PUSH32 0x4F776E61626C653A2063616C6C6572206973206E6F7420746865206F776E6572 PUSH0 DUP3 ADD MSTORE POP JUMP JUMPDEST PUSH0 PUSH2 0x2048 PUSH1 0x20 DUP4 PUSH2 0x168A JUMP JUMPDEST SWAP2 POP PUSH2 0x2053 DUP3 PUSH2 0x2014 JUMP JUMPDEST PUSH1 0x20 DUP3 ADD SWAP1 POP SWAP2 SWAP1 POP JUMP JUMPDEST PUSH0 PUSH1 0x20 DUP3 ADD SWAP1 POP DUP2 DUP2 SUB PUSH0 DUP4 ADD MSTORE PUSH2 0x2075 DUP2 PUSH2 0x203C JUMP JUMPDEST SWAP1 POP SWAP2 SWAP1 POP JUMP JUMPDEST PUSH32 0x45524332303A206275726E2066726F6D20746865207A65726F20616464726573 PUSH0 DUP3 ADD MSTORE PUSH32 0x7300000000000000000000000000000000000000000000000000000000000000 PUSH1 0x20 DUP3 ADD MSTORE POP JUMP JUMPDEST PUSH0 PUSH2 0x20D6 PUSH1 0x21 DUP4 PUSH2 0x168A JUMP JUMPDEST SWAP2 POP PUSH2 0x20E1 DUP3 PUSH2 0x207C JUMP JUMPDEST PUSH1 0x40 DUP3 ADD SWAP1 POP SWAP2 SWAP1 POP JUMP JUMPDEST PUSH0 PUSH1 0x20 DUP3 ADD SWAP1 POP DUP2 DUP2 SUB PUSH0 DUP4 ADD MSTORE PUSH2 0x2103 DUP2 PUSH2 0x20CA JUMP JUMPDEST SWAP1 POP SWAP2 SWAP1 POP JUMP JUMPDEST PUSH32 0x45524332303A206275726E20616D6F756E7420657863656564732062616C616E PUSH0 DUP3 ADD MSTORE PUSH32 0x6365000000000000000000000000000000000000000000000000000000000000 PUSH1 0x20 DUP3 ADD MSTORE POP JUMP JUMPDEST PUSH0 PUSH2 0x2164 PUSH1 0x22 DUP4 PUSH2 0x168A JUMP JUMPDEST SWAP2 POP PUSH2 0x216F DUP3 PUSH2 0x210A JUMP JUMPDEST PUSH1 0x40 DUP3 ADD SWAP1 POP SWAP2 SWAP1 POP JUMP JUMPDEST PUSH0 PUSH1 0x20 DUP3 ADD SWAP1 POP DUP2 DUP2 SUB PUSH0 DUP4 ADD MSTORE PUSH2 0x2191 DUP2 PUSH2 0x2158 JUMP JUMPDEST SWAP1 POP SWAP2 SWAP1 POP JUMP JUMPDEST PUSH32 0x45524332303A206D696E7420746F20746865207A65726F206164647265737300 PUSH0 DUP3 ADD MSTORE POP JUMP JUMPDEST PUSH0 PUSH2 0x21CC PUSH1 0x1F DUP4 PUSH2 0x168A JUMP JUMPDEST SWAP2 POP PUSH2 0x21D7 DUP3 PUSH2 0x2198 JUMP JUMPDEST PUSH1 0x20 DUP3 ADD SWAP1 POP SWAP2 SWAP1 POP JUMP JUMPDEST PUSH0 PUSH1 0x20 DUP3 ADD SWAP1 POP DUP2 DUP2 SUB PUSH0 DUP4 ADD MSTORE PUSH2 0x21F9 DUP2 PUSH2 0x21C0 JUMP JUMPDEST SWAP1 POP SWAP2 SWAP1 POP JUMP INVALID LOG2 PUSH5 0x6970667358 0x22 SLT KECCAK256 0xCD 0xB9 0xE6 0xD6 0xDC BALANCE SWAP15 0xC0 JUMP PUSH4 0xBBF79F20 0xD SWAP12 OR 0xC2 SWAP5 GT SLOAD 0xFC SELFDESTRUCT JUMPDEST SAR 0x5E 0xAC SDIV 0xA9 TIMESTAMP MSTORE DUP15 PUSH5 0x736F6C6343 STOP ADDMOD ISZERO STOP CALLER "
		},
		"gasEstimates": {
			"creation": {
				"codeDepositCost": "1751600",
				"executionCost": "infinite",
				"totalCost": "infinite"
			},
			"external": {
				"addBlackList(address)": "27040",
				"addMoreTokens(uint256)": "infinite",
				"admin()": "2640",
				"allowance(address,address)": "infinite",
				"approve(address,uint256)": "infinite",
				"balanceOf(address)": "2918",
				"burnFromOwner(uint256)": "infinite",
				"burnFromUser(address,uint256)": "infinite",
				"buyToken(uint256)": "infinite",
				"decimals()": "361",
				"decreaseAllowance(address,uint256)": "infinite",
				"increaseAllowance(address,uint256)": "infinite",
				"isBlackList(address)": "2981",
				"name()": "infinite",
				"owner()": "2538",
				"removeBlackList(address)": "24890",
				"renounceOwnership()": "30501",
				"symbol()": "infinite",
				"tokenPrice()": "2558",
				"totalSupply()": "2522",
				"transfer(address,uint256)": "infinite",
				"transferFrom(address,address,uint256)": "infinite",
				"transferOwnership(address)": "30841",
				"withdrawAmount()": "infinite"
			}
		},
		"methodIdentifiers": {
			"addBlackList(address)": "0ecb93c0",
			"addMoreTokens(uint256)": "e096b265",
			"admin()": "f851a440",
			"allowance(address,address)": "dd62ed3e",
			"approve(address,uint256)": "095ea7b3",
			"balanceOf(address)": "70a08231",
			"burnFromOwner(uint256)": "b5f07ea1",
			"burnFromUser(address,uint256)": "c753e126",
			"buyToken(uint256)": "2d296bf1",
			"decimals()": "313ce567",
			"decreaseAllowance(address,uint256)": "a457c2d7",
			"increaseAllowance(address,uint256)": "39509351",
			"isBlackList(address)": "b36d6919",
			"name()": "06fdde03",
			"owner()": "8da5cb5b",
			"removeBlackList(address)": "e4997dc5",
			"renounceOwnership()": "715018a6",
			"symbol()": "95d89b41",
			"tokenPrice()": "7ff9b596",
			"totalSupply()": "18160ddd",
			"transfer(address,uint256)": "a9059cbb",
			"transferFrom(address,address,uint256)": "23b872dd",
			"transferOwnership(address)": "f2fde38b",
			"withdrawAmount()": "534844a2"
		}
	},
	"abi": [
		{
			"inputs": [],
			"stateMutability": "nonpayable",
			"type": "constructor"
		},
		{
			"anonymous": false,
			"inputs": [
				{
					"indexed": true,
					"internalType": "address",
					"name": "owner",
					"type": "address"
				},
				{
					"indexed": true,
					"internalType": "address",
					"name": "spender",
					"type": "address"
				},
				{
					"indexed": false,
					"internalType": "uint256",
					"name": "value",
					"type": "uint256"
				}
			],
			"name": "Approval",
			"type": "event"
		},
		{
			"anonymous": false,
			"inputs": [
				{
					"indexed": true,
					"internalType": "address",
					"name": "previousOwner",
					"type": "address"
				},
				{
					"indexed": true,
					"internalType": "address",
					"name": "newOwner",
					"type": "address"
				}
			],
			"name": "OwnershipTransferred",
			"type": "event"
		},
		{
			"anonymous": false,
			"inputs": [
				{
					"indexed": true,
					"internalType": "address",
					"name": "from",
					"type": "address"
				},
				{
					"indexed": true,
					"internalType": "address",
					"name": "to",
					"type": "address"
				},
				{
					"indexed": false,
					"internalType": "uint256",
					"name": "value",
					"type": "uint256"
				}
			],
			"name": "Transfer",
			"type": "event"
		},
		{
			"inputs": [
				{
					"internalType": "address",
					"name": "user",
					"type": "address"
				}
			],
			"name": "addBlackList",
			"outputs": [],
			"stateMutability": "nonpayable",
			"type": "function"
		},
		{
			"inputs": [
				{
					"internalType": "uint256",
					"name": "_numberOfTokens",
					"type": "uint256"
				}
			],
			"name": "addMoreTokens",
			"outputs": [],
			"stateMutability": "nonpayable",
			"type": "function"
		},
		{
			"inputs": [],
			"name": "admin",
			"outputs": [
				{
					"internalType": "address",
					"name": "",
					"type": "address"
				}
			],
			"stateMutability": "view",
			"type": "function"
		},
		{
			"inputs": [
				{
					"internalType": "address",
					"name": "owner",
					"type": "address"
				},
				{
					"internalType": "address",
					"name": "spender",
					"type": "address"
				}
			],
			"name": "allowance",
			"outputs": [
				{
					"internalType": "uint256",
					"name": "",
					"type": "uint256"
				}
			],
			"stateMutability": "view",
			"type": "function"
		},
		{
			"inputs": [
				{
					"internalType": "address",
					"name": "spender",
					"type": "address"
				},
				{
					"internalType": "uint256",
					"name": "amount",
					"type": "uint256"
				}
			],
			"name": "approve",
			"outputs": [
				{
					"internalType": "bool",
					"name": "",
					"type": "bool"
				}
			],
			"stateMutability": "nonpayable",
			"type": "function"
		},
		{
			"inputs": [
				{
					"internalType": "address",
					"name": "account",
					"type": "address"
				}
			],
			"name": "balanceOf",
			"outputs": [
				{
					"internalType": "uint256",
					"name": "",
					"type": "uint256"
				}
			],
			"stateMutability": "view",
			"type": "function"
		},
		{
			"inputs": [
				{
					"internalType": "uint256",
					"name": "_numberOfTokens",
					"type": "uint256"
				}
			],
			"name": "burnFromOwner",
			"outputs": [],
			"stateMutability": "nonpayable",
			"type": "function"
		},
		{
			"inputs": [
				{
					"internalType": "address",
					"name": "burnTokenFrom",
					"type": "address"
				},
				{
					"internalType": "uint256",
					"name": "_numberOfToken",
					"type": "uint256"
				}
			],
			"name": "burnFromUser",
			"outputs": [],
			"stateMutability": "nonpayable",
			"type": "function"
		},
		{
			"inputs": [
				{
					"internalType": "uint256",
					"name": "noOfToken",
					"type": "uint256"
				}
			],
			"name": "buyToken",
			"outputs": [],
			"stateMutability": "payable",
			"type": "function"
		},
		{
			"inputs": [],
			"name": "decimals",
			"outputs": [
				{
					"internalType": "uint8",
					"name": "",
					"type": "uint8"
				}
			],
			"stateMutability": "view",
			"type": "function"
		},
		{
			"inputs": [
				{
					"internalType": "address",
					"name": "spender",
					"type": "address"
				},
				{
					"internalType": "uint256",
					"name": "subtractedValue",
					"type": "uint256"
				}
			],
			"name": "decreaseAllowance",
			"outputs": [
				{
					"internalType": "bool",
					"name": "",
					"type": "bool"
				}
			],
			"stateMutability": "nonpayable",
			"type": "function"
		},
		{
			"inputs": [
				{
					"internalType": "address",
					"name": "spender",
					"type": "address"
				},
				{
					"internalType": "uint256",
					"name": "addedValue",
					"type": "uint256"
				}
			],
			"name": "increaseAllowance",
			"outputs": [
				{
					"internalType": "bool",
					"name": "",
					"type": "bool"
				}
			],
			"stateMutability": "nonpayable",
			"type": "function"
		},
		{
			"inputs": [
				{
					"internalType": "address",
					"name": "user",
					"type": "address"
				}
			],
			"name": "isBlackList",
			"outputs": [
				{
					"internalType": "bool",
					"name": "",
					"type": "bool"
				}
			],
			"stateMutability": "view",
			"type": "function"
		},
		{
			"inputs": [],
			"name": "name",
			"outputs": [
				{
					"internalType": "string",
					"name": "",
					"type": "string"
				}
			],
			"stateMutability": "view",
			"type": "function"
		},
		{
			"inputs": [],
			"name": "owner",
			"outputs": [
				{
					"internalType": "address",
					"name": "",
					"type": "address"
				}
			],
			"stateMutability": "view",
			"type": "function"
		},
		{
			"inputs": [
				{
					"internalType": "address",
					"name": "user",
					"type": "address"
				}
			],
			"name": "removeBlackList",
			"outputs": [],
			"stateMutability": "nonpayable",
			"type": "function"
		},
		{
			"inputs": [],
			"name": "renounceOwnership",
			"outputs": [],
			"stateMutability": "nonpayable",
			"type": "function"
		},
		{
			"inputs": [],
			"name": "symbol",
			"outputs": [
				{
					"internalType": "string",
					"name": "",
					"type": "string"
				}
			],
			"stateMutability": "view",
			"type": "function"
		},
		{
			"inputs": [],
			"name": "tokenPrice",
			"outputs": [
				{
					"internalType": "uint256",
					"name": "",
					"type": "uint256"
				}
			],
			"stateMutability": "view",
			"type": "function"
		},
		{
			"inputs": [],
			"name": "totalSupply",
			"outputs": [
				{
					"internalType": "uint256",
					"name": "",
					"type": "uint256"
				}
			],
			"stateMutability": "view",
			"type": "function"
		},
		{
			"inputs": [
				{
					"internalType": "address",
					"name": "to",
					"type": "address"
				},
				{
					"internalType": "uint256",
					"name": "amount",
					"type": "uint256"
				}
			],
			"name": "transfer",
			"outputs": [
				{
					"internalType": "bool",
					"name": "",
					"type": "bool"
				}
			],
			"stateMutability": "nonpayable",
			"type": "function"
		},
		{
			"inputs": [
				{
					"internalType": "address",
					"name": "from",
					"type": "address"
				},
				{
					"internalType": "address",
					"name": "to",
					"type": "address"
				},
				{
					"internalType": "uint256",
					"name": "amount",
					"type": "uint256"
				}
			],
			"name": "transferFrom",
			"outputs": [
				{
					"internalType": "bool",
					"name": "",
					"type": "bool"
				}
			],
			"stateMutability": "nonpayable",
			"type": "function"
		},
		{
			"inputs": [
				{
					"internalType": "address",
					"name": "newOwner",
					"type": "address"
				}
			],
			"name": "transferOwnership",
			"outputs": [],
			"stateMutability": "nonpayable",
			"type": "function"
		},
		{
			"inputs": [],
			"name": "withdrawAmount",
			"outputs": [],
			"stateMutability": "nonpayable",
			"type": "function"
		}
	]
}